:1000000000800020BD010000D54E00008D4E000094
:100010008D4E00008D4E00008D4E00008D4E000074
:100020008D4E00008D4E00008D4E0000D54E00001C
:10003000D54E00008D4E0000D54E00007D4E0000D4
:10004000D54E0000D54E0000D54E0000D54E000024
:10005000D54E0000D54E0000D54E0000D54E000014
:10006000D54E0000D54E0000D54E0000D54E000004
:10007000D54E0000D54E0000D54E0000D54E0000F4
:10008000D54E0000D54E0000D54E0000D54E0000E4
:10009000D54E0000D54E0000D54E0000D54E0000D4
:1000A0006D2B0000792B0000D54E0000D54E0000CE
:1000B000D54E0000D54E0000D54E0000D54E0000B4
:1000C000D54E0000D54E0000D54E0000D54E0000A4
:1000D000D54E0000D54E0000D54E0000D54E000094
:1000E000D54E0000D54E0000D54E0000D54E000084
:1000F000D54E0000D96C0000D54E00001D740000E4
:10010000D54E00008D790000D54E0000D54E000080
:10011000D54E0000D54E0000D54E0000D54E000053
:10012000D54E0000D54E0000D54E0000D54E000043
:10013000D54E0000D54E0000D54E0000D54E000033
:10014000D54E0000D54E0000D54E0000D54E000023
:10015000D54E0000D54E0000D54E0000D54E000013
:10016000D54E000029550000D54E0000D54E0000A8
:10017000D54E0000D54E0000D54E0000D54E0000F3
:10018000D54E0000D54E0000D54E0000D54E0000E3
:10019000D54E0000D54E0000D54E0000D54E0000D3
:1001A000D54E0000D54E0000D54E0000D54E0000C3
:1001B000D54E0000D54E0000D54E0000564B4CF2F7
:1001C000205210B51A804DF628121A8000BF00BFC9
:1001D00004F084FE514B4FF010621A60504A9A604E
:1001E000504ADA60504A136813F4807304D14F49BF
:1001F0000B604FF4A85313604D4B1A78110703D5C9
:100200001A7842F008021A704A4B4B492A221A7097
:100210004A4A4B4B8B4204D252F8040F43F8040B6A
:10022000F8E7484B484900228B4202D243F8042B9E
:10023000FAE74649464A002352F8230041F82300D2
:1002400001336F2BF8D1434B434A802103F8011B44
:100250009342FBD1414B3D4A1A60414B8A221A70AE
:10026000A3F5805324225A70A0221A709A7992071B
:10027000FCD59A79D406FCD43A4A937903F00C035E
:10028000082B384BF9D105221A7143225A719A79F9
:100290009006FCD5334A9179324B4906FBD5324A58
:1002A0004FF0817111600521516020221A709A79F6
:1002B00002F00C020C2AFAD12C4B2D4A1A602D4B5D
:1002C0002D4A1A6000225A60072243F8042C2B4A58
:1002D000C3F80C2D62B604F0FFFF144B1B68DA075D
:1002E00005D5274804F058FF264B274A1A60274BAC
:1002F0001B785B0609D5234C234B22689A4204D114
:100300001F4804F049FF0023236009F045FE04F074
:10031000EBFD05F099FFFEE70E200540308004401C
:10032000823F04000100002B10D0034014D0034092
:1003300002D0074000E00740D496FF1FC8B4000079
:100340002087FF1FD896FF1F5C9CFF1F0082FF1FA6
:100350000000000000E400E05FE400E008ED00E0E1
:1003600000500640004006404480044004800440A1
:10037000C010050014E000E03F190100000020203B
:1003800086E1DE031CE00340A5C3945A00F0074059
:10039000FFFFFFFFFFFFFFFFFFFFFFFFFFFFFFFF6D
:1003A000FFFFFFFFFFFFFFFFFFFFFFFFFFFFFFFF5D
:1003B000FFFFFFFFFFFFFFFFFFFFFFFFFFFFFFFF4D
:1003C000FFFFFFFFFFFFFFFFFFFFFFFFFFFFFFFF3D
:1003D000FFFFFFFFFFFFFFFFFFFFFFFFFFFFFFFF2D
:1003E000FFFFFFFFFFFFFFFFFFFFFFFFFFFFFFFF1D
:1003F000FFFFFFFFFFFFFFFFFFFFFFFFFFFFFFFF0D
:10040000FFFFFFFFFFFFFFFFFFFFFFFFDEF9FFFF23
:1004100010B5054C237833B9044B13B10448AFF33E
:1004200000800123237010BDD896FF1F000000003C
:10043000CCB40000084B10B51BB108490848AFF315
:1004400000800848036803B910BD074B002BFBD0A0
:10045000BDE81040184700BF00000000DC96FF1FF9
:10046000CCB40000D496FF1F000000002DE9F04F2F
:100470006248634DDFF8A8A1624E634C87B001F07B
:100480003BF808F037FFC5E900015C4801F028F8A7
:1004900008F030FF07468846C6E90078DAE900230D
:1004A000DAE90601CDE9027808F0C6FDDAE90223AF
:1004B00006460F4608F0C0FD02460B463046394658
:1004C000CDE9046709F094F8DAE904678946D5E9CB
:1004D00000128046CDE900123B46CAE90889084669
:1004E0001146324608F0A6FD42464B4608F056FF3C
:1004F00032463B4608F0A0FD06460F46CAE90467AF
:1005000042464B4600204149414D08F093FDDDE94C
:10051000042308F043FFDFF80CE1CAE90601CEE945
:100520000067D4E90023D4E9060108F085FDD4E989
:10053000022382468B4608F07FFD02460B4650465A
:10054000594609F055F8D4E9048906460F46424653
:100550004B46C4E90867DDE9020108F06BFD32464D
:100560003B4608F01BFF42464B4608F065FD8046BF
:10057000894632463B46C4E904890020234908F0F5
:1005800059FD52465B4608F009FF224B2E68C3E92D
:100590000089C4E90601304608F0ACFEDDE90078C8
:1005A00002460B463846414609F088F928B13846DC
:1005B000414609F0EBF906462860174D2C682046A5
:1005C00008F098FEDDE9007802460B4638464146C1
:1005D00009F056F928B13846414609F0D7F90446E2
:1005E00028602146304609F025FA08F083FE0B4BBF
:1005F000C3E9000107B0BDE8F08F00BFE098FF1F1E
:10060000B897FF1FB098FF1FB898FF1F0000F03F7A
:100610005898FF1F6098FF1FF896FF1F0097FF1F55
:100620007898FF1FC097FF1F2DE9F843264A274BF4
:10063000D2E90001D3E9002308F0B0FE0022002334
:1006400004460D4609F026F958BB214F214E1CA344
:10065000D3E900232046294608F0A0FED7E900236D
:1006600008F09CFED6E9002308F0E6FC4FF00008F5
:1006700004460D464FF00009C6E9004542464B4688
:1006800009F0FEF8A0B9144BD3E9008922462B46A5
:100690004046494609F0F4F808B1C6E90089BDE8CA
:1006A000F8830C4E2046294605A3D3E90023D7E75B
:1006B000C6E9008944464D46E5E700BFAFF3008038
:1006C000000000805634323FC097FF1F6098FF1F24
:1006D000A898FF1F6898FF1FA097FF1FFFFFFFFF4D
:1006E00030B5234BD3E9004583B01DA3D3E90023E4
:1006F0002046294609F0E2F838B11BA3D3E90023CC
:100700002046294609F0BCF8E8B90022002320461B
:10071000294609F0B5F8D0B9204629460022002321
:1007200009F0CCF8B8B1134A02231360124A1168D9
:10073000994206D01148124900680190019813604F
:10074000086003B030BD0B4A01231360EEE7094A8D
:1007500003231360EAE7074B1B68E7E7AFF300806A
:10076000000000A09999B9BF000000A09999B93F75
:100770006098FF1F0888FF1F7098FF1F3C99FF1F9C
:100780007498FF1F70B50A2182B04E484E4D4F4EEF
:1007900005F0FCFB4E4B4F48196805F0B3FD0421F2
:1007A0004D4805F0F3FB4B48022405F05BFD0121A9
:1007B0004A4805F0EBFBD5E900230094454805F0D5
:1007C000ABFD0121464805F0E1FB424805F04AFD3A
:1007D0000121424805F0DAFBD6E9002300943D48A8
:1007E00005F09AFD01213F4805F0D0FB394805F09E
:1007F00039FD0121394805F0C9FBD6E90023D5E9C7
:10080000000108F0CBFD009402460B46314805F08C
:1008100083FD2146344805F0B9FB2E4805F022FD42
:1008200001212E4805F0B2FB304B0094D3E90023A0
:10083000284805F071FD01212D4805F0A7FB25484A
:1008400005F010FD08212B4805F0A0FB2A4B1B6882
:10085000032B0AD8DFE803F029021C0F06212748E2
:1008600005F094FB1B4805F0FDFC1A4802B0BDE8FA
:10087000704005F0F7BC0421214805F087FB1548BE
:1008800005F0F0FC134802B0BDE8704005F0EABC8A
:1008900008211C4805F07AFB0E4805F0E3FC0D48E2
:1008A00002B0BDE8704005F0DDBC0721164805F038
:1008B0006DFB084805F0D6FC064802B0BDE8704064
:1008C00005F0D0BC20AB0000C097FF1F6098FF1F51
:1008D000FC96FF1F3C9AFF1F2CAB000038AC0000B9
:1008E00034AB000038AB00003CAB00000099FF1FA8
:1008F00040AB000044AB00000888FF1F58AB00006D
:100900006CAB000060AB000050AB0000FFFFFFFFCE
:10091000F0B5042183B0BA48BA4FBB4EBB4D05F0C9
:1009200035FBBB4BBB4819780A22002305F0AAFC13
:10093000B84805F097FC0321B74805F027FBB74BF3
:10094000B4480224D3E90023009405F0E5FCB14843
:1009500005F088FC0321B24805F018FBB14B009468
:10096000D3E90023AB4805F0D7FCAA4805F07AFC90
:100970000521AD4805F00AFB00230A223978A54875
:1009800005F080FC0321A94805F000FBA14805F013
:1009900069FC0521A64805F0F9FAA64B0094D3E9B5
:1009A00000239C4805F0B8FC9A4805F05BFC052143
:1009B000A14805F0EBFA387808F08AFC9F4BD3E9A0
:1009C0000E2308F0EBFC009402460B46914805F01C
:1009D000A3FC03219A4805F0D9FA8E4805F042FCA1
:1009E0000921984805F0D2FA974B0094D3E90023E7
:1009F000884805F091FC0321914805F0C7FA854825
:100A000005F030FC0921914805F0C0FA904BD6E979
:100A10000001D3E9002308F0EBFD009402460B46E9
:100A20007C4805F079FC0D218A4805F0AFFA794839
:100A300005F018FC0621884805F0A8FAD5E900233E
:100A400069A1D1E9000107F03BFA02460B460020FC
:100A5000824908F0EFFA66A3D3E9002308F09EFC70
:100A600000227F4B08F0E8FA009402460B466948E2
:100A700005F052FC01217B4805F088FA654805F035
:100A8000F1FB0621784805F081FAD5E900015AA367
:100A9000D3E9002308F082FC0022744B08F07EFCAE
:100AA00002460B4600206D4908F0C4FA00226B4B49
:100AB00008F09EFD02460B4600204FF0804108F0F2
:100AC000B9FA009402460B46524805F025FC012174
:100AD000644805F05BFA4F4805F0C4FB09216448FF
:100AE00005F054FA634B0094D3E90023494805F01C
:100AF00013FC0421604805F049FA464805F0B2FBB2
:100B00000A215E4805F042FA5D4B4248196805F03B
:100B1000F9FB04215B4805F039FA3E4805F0A2FBD9
:100B20000921594805F032FA584B3A480425D3E9CF
:100B30000023009505F0F0FB364805F093FB0B21F0
:100B4000534805F023FA534B0095D3E9002331486D
:100B500005F0E2FB2F4805F085FB08214E4805F023
:100B600015FA4E4B186808F0C5FB009402460B4678
:100B7000284805F0D1FB2821494805F007FA254807
:100B800005F070FB0921474805F000FA464B47493C
:100B9000186809F059F808F0ADFB009502460B46BD
:100BA0001C4805F0B9FB1E21414805F0EFF9194832
:100BB00005F058FB0A213F4805F0E8F9D6E9002383
:100BC0000095144805F0A8FB29463B4805F0DEF9DE
:100BD000104805F047FB394800F09AFC00287FD107
:100BE0006EE000BFAFF30080000000C0CCCCF03F4F
:100BF000000000403333E33F000000A09999B93F63
:100C000074AB00000C99FF1F6898FF1F0099FF1F2D
:100C10000488FF1F3C9AFF1F7CAB0000B897FF1FA2
:100C200080AB0000B098FF1FA4AB000084AB0000B5
:100C300088AB0000C897FF1F98AB0000E097FF1F2C
:100C400090AB000094AB0000D097FF1FA0AB00005A
:100C5000C097FF1FACAB0000BCAB000000005940C8
:100C60000000444040AB0000C4AB00000000E03F87
:100C7000CCAB00000097FF1FD8AB000020AB0000FA
:100C8000FC96FF1F2CAB0000E0AB0000A098FF1FFC
:100C9000ECAB0000B097FF1FF8AB0000F496FF1F0D
:100CA00004AC000030AC00000899FF1F0000C842EF
:100CB0003CAC00005CAC000068AC0000E098FF1F9A
:100CC0000B4800F02DFC08B903B0F0BD0521094820
:100CD00005F05CF9084803B0BDE8F04005F0C2BA81
:100CE0000821064805F052F9034805F0BBFAE7E78A
:100CF000E098FF1F7CAC00003C9AFF1F70AC000026
:100D000030B51B4CC9B00BA80F2102F01BF9D4E978
:100D1000140108F0F3FDD4E9122345B2D4E910011F
:100D2000CDE90623089508F0E9FD43B294F82000C8
:100D3000049308F0BDFA0CA3D3E9002308F02EFBBE
:100D400094F82230E57FA27F0093CDE902010023D1
:100D50000BA80195012102F05BF80BA900220548C0
:100D600003F0A6F949B030BD000000000020AC40FF
:100D7000E097FF1F0897FF1F08B5FFF7C9FDFFF7B2
:100D8000BFFF0022FF210248BDE8084002F07CBFFF
:100D90000897FF1F2DE9F041C4B04AAB0E4607A8E3
:100DA0000F219046D3E9004502F0CCF8304608F018
:100DB000A1FA0D4B06461B78049340460F46CDE939
:100DC000024508F097FA3246CDE900013B4607A8F4
:100DD000012101F0C5FF07A90022044803F068F9CA
:100DE00044B0BDE8F08100BF0488FF1F0897FF1FD3
:100DF000F0B5C5B014461D4606460F4607A80F219C
:100E000002F0A0F8CDE904450B4B38461D7808F0F8
:100E10005FFA0024CDE902012346294607A800967F
:100E20000194012201F044FF224607A9034803F080
:100E30003FF945B0F0BD00BF0488FF1F0897FF1FB2
:100E40002DE9F04F624C634A236889B0049313681C
:100E500004991E338B42C0F09A805F4A2368069340
:100E6000136806995A4803F57A738B4205D35B4899
:100E700003F0D0FD09B0BDE8F08F0168584B079131
:100E800007991160D3E9000108F080FDDFF87CA12B
:100E9000544DDFF858910446DAE9000108F076FD78
:100EA0002B7800260027014622461846CDE9006728
:100EB000FFF770FFFFF7B8FBFFF712FC4A494B4BF7
:100EC0000022D1E9000108F069FA494BD3E9002377
:100ED00008F08EFB4FF0000842464B46CDE9020178
:100EE00008F0ECFC044600285CD1DDE902893B46B1
:100EF00032464046494608F0C3FC3E4B00285CD0D1
:100F0000C3E90067A346DFF808813B4CD8F800002E
:100F1000216808F08FFD08F0EDF9384B06460F46C2
:100F2000C3E90067DAE9000108F030FD344AC8F887
:100F3000000003462360106808F0D6FF32463B46A7
:100F400001465846FFF754FFFFF71CFC2D4A136873
:100F500001333C2B2CD813600D2004F035F9B0FA86
:100F600080F149090D2004F029F92B7826491D4A02
:100F70000133DBB2FF2B4FF00000086008BF0123F4
:100F80001648137003F046FD09B0BDE8F08F2368E2
:100F90000593059B1360FFF769FA1B4A1368013339
:100FA00013605AE7134B4FF0640BC3E90089AAE7BB
:100FB00001231360FFF7E0FECEE746464F4640466A
:100FC0004946C3E9006708F0C1FC5FFA80FB9AE775
:100FD0003C99FF1FA897FF1FDC97FF1F0897FF1F73
:100FE0006098FF1F0488FF1F6898FF1F000059408A
:100FF000A097FF1F0099FF1FF896FF1F0097FF1F84
:101000000088FF1F2888FF1FFC96FF1FC097FF1F47
:101010005898FF1F0028B1FBF0F115DD70B50646AA
:101020004D08002401210D2004F0C8F8284604F0E2
:1010300003F900210D2004F0C1F80134284604F022
:10104000FBF8A642EED170BD704700BF70B5064DEB
:1010500005F178062C46601B03F07EFE04F8010BB8
:10106000B442F8D170BD00BFE097FF1F08B5002162
:101070000548782203F08AFE4FF4FA610520BDE8A6
:101080000840FFF7C7BF00BFE097FF1F08B507493B
:101090000748782203F07EFDFFF7E8FF40F6B831FD
:1010A0000A20BDE80840FFF7B5BF00BFA8AA0000AE
:1010B000E097FF1FFFFFFFFF2DE9F0474FF4FA70A5
:1010C00086B004F0B9F8844C844E01210D2004F060
:1010D00089F800210D2004F071F82168804A8148C8
:1010E00013783BB103789B0704D0236835685B1BFA
:1010F000182B04D823685B1AB3F57A7FF0D927211F
:1011000079487A4E04F042FF794805F0ABF8322076
:1011100004F092F8C8210220FFF77CFFFFF796FF4A
:10112000328845F656639A4201D0FFF7AFFF40215F
:101130007048714D00F06EF90723009303220021DF
:101140006C4800F017FA326FF16E6A4800F02AFA24
:1011500028466A4902F0C0FA2846694902F0C6FAF0
:10116000042740F2FE7328468DE88800AA22232334
:10117000012102F0BDFA28463E22012102F0EAFADE
:10118000AB68604923F00103AB60284602F0E0FA47
:101190006B6E002B00F0998057485B4F5B4DDFF87A
:1011A000A4A102F0A9FDD6E9120108F0EFFBD6E9EF
:1011B000142396F8201038605548564FC0E9002394
:1011C0003970084608F0E8FC08F094F802460B462F
:1011D000D6E90E0108F0E2F8C5E90001FFF746F98B
:1011E0004D4BD3E9000108F0D1FB4C494C4A086053
:1011F00003460A20136004F01FF8FFF737F90A20AE
:1012000004F01AF8FFF732F90A2004F015F8FFF796
:101210002DF90A2004F010F8FFF728F9FFF726F956
:101220000A2004F009F8FFF721F93E4BD3E90089C1
:10123000D6E90E0142464B4607F0FCFE24A3D3E953
:10124000002308F0ABF802460B4600203649374E23
:1012500007F0F0FE08F09AFB354B186008F04AF8EA
:10126000D5E90023C6E9000108F098F800222E4BCA
:10127000304D08F0BDF9DFF8D0E006460F46424693
:101280004B46CEE90067C5E9006708F0B1F9CAE945
:101290000001FFF73DFBFFF775FA40F6B83003F0A9
:1012A000CBFFFFF72DFD23680593059D236804936D
:1012B000049823680393204C2049214B039A25600E
:1012C00008601A6006B0BDE8F08785F8687063E7CB
:1012D00000000040B63354403C99FF1F549CFF1F50
:1012E000209AFF1F389AFF1FCCAD0000E097FF1F28
:1012F0003C9AFF1FE098FF1F0897FF1F10AA0000ED
:101300009CAA0000F4A900000C88FF1FA097FF1FF3
:10131000A898FF1F0C99FF1FB897FF1F5898FF1F31
:10132000F896FF1FC097FF1F000059400099FF1F4C
:10133000F496FF1F6898FF1FD897FF1FA897FF1FFD
:10134000DC97FF1FC897FF1FD097FF1FFFFFFFFF0E
:101350002DE9F04383B003F0B7FC02212248234C6F
:1013600003F000FC224B234A18680090DDF800E0EF
:101370001B6801932049214BD2E90067C3F800E0C4
:10138000D1E900011E4B1F4ADDF804E0C3F800E07C
:10139000D4E9008910A5D5E900451B4BC2E90667D1
:1013A000C2E9020100260EA1D1E900010027C2E92D
:1013B0000467C3E90045154F154D00260024C2E916
:1013C0000089C3E90201C3E90667C3E9044503B024
:1013D000BDE8F083AFF30080000000A0F2D77A3EB2
:1013E00000000080B5F8E43E0897FF1F1888FF1F33
:1013F0003C99FF1F1088FF1F2088FF1FA897FF1F21
:10140000DC97FF1FB898FF1F7898FF1F00407F40B0
:10141000000024402DE9F0410D4B5D7BD3F8108096
:1014200086B0064628460F4600F0E0FB0124002364
:10143000084A01900392404629460494029300937F
:101440001A4600F0E3FC2046377106B0BDE8F08193
:101450002499FF1FA086010070B5204C054682B07C
:101460000E462046297900F0B7FD31462046002679
:1014700000F0C2FA627B216900962046012301F048
:101480004FF87823013BFDD12979204600F0A4FDD7
:1014900001232A79617B009320690196022301F0E0
:1014A00067F82069D0F83821D0F834319A42F9D061
:1014B00001F078F80646206901F074F8002305462B
:1014C0000093627B21690548012301F029F8E8B205
:1014D00040EA062000B202B070BD00BF2499FF1F91
:1014E00010B504210446FFF7B7FF08F059FB216847
:1014F00008F0AAFB10BD00BF08B50221FFF7ACFF42
:1015000008F04EFB014908F09FFB08BD0AD7A33A3B
:1015100008B50621FFF7A0FFC0F3800008BD00BF9B
:1015200008B50621FFF798FFC0F3001008BD00BF03
:1015300070B50F4C82B00E4601792046154600F07A
:101540004BFD3146204600F057FA290A204600F0AC
:1015500053FAE9B2204600F04FFA00230093627B71
:1015600021692046012300F0DBFF02B070BD00BFFF
:101570002499FF1F70B59DF81040084E084D066174
:1015800044EAC30343EA821242EA4122C56092B2AE
:101590000021FFF7CDFF012070BD00BF0000104209
:1015A000ACC5A73D70B50446C068616115460E46DE
:1015B00008F0FEFB0E49A061284608F0F9FB0D4932
:1015C000E0612060054608F03FFB2946A0603046F8
:1015D00008F03AFB0146084808F0EAFB08F0AAFCCC
:1015E000052182B22046FFF7A3FF012070BD00BF96
:1015F00000FEFF460000C841ACC5A73BF0B4314C2B
:10160000314B324E324D334A4FF40077276040F26F
:1016100001241C603378304C43F0800333702B6816
:1016200043F010032B60136823F400531360236806
:1016300043F080432360236823F000432360226843
:10164000254BD502FBD41A6882F000721A601A6822
:101650009201FCD4204C23681F4ADB01FBD51368A0
:1016600043F40033136013684CF2503443F00053DA
:10167000A142136019D0194B99421AD0184B9942C4
:101680001BD0184B99420CD0174B9942114B0CBFF1
:10169000164A174A1A600023037043704360F0BC77
:1016A00070470C4B134A1A60F5E70A4B124A1A604E
:1016B000F1E7084B114A1A60EDE7064B104A1A6031
:1016C000E9E700BF309004403490044000500640E9
:1016D0003C8004400440024000400240A0860100DB
:1016E00090D0030020A1070040420F000200090132
:1016F00002007B0702007B0102007B1302007B09D2
:1017000002007B03234B00221A604B78002B31D060
:101710004B680A7820495B00002A23F0404323F0FD
:1017200001030CBF4FF080424FF0404213430B6067
:101730001A4A136823F0805313601368D901FCD44C
:10174000164A13681B01FCD4F0B51548DFF870E0A9
:10175000144F154E154D164C1649174A4FF000639D
:10176000CEF800303B6033602B60236003600B6079
:101770001360F0BD08784B68104A0749DB04002865
:1017800002EA03020CBF00234FF0004313430B6037
:10179000CEE700BF104002404840024000400240F7
:1017A000504102401041024020410240304102407D
:1017B0004041024060410240704102400000F83F59
:1017C00000410240024B1868C0F34010704700BF50
:1017D00030400240F0B5CB8883B00C46EBB1304EC0
:1017E000304D32680092009F2A68910619D4326801
:1017F0000192019AD21B9A420CD204F087FE2B6808
:101800009A060ED4E3882BB132680192019AD21B5A
:101810009342F2D8002003B0F0BD224B1B689B0618
:10182000F8D5214A1368C3F303436371126812F4B5
:1018300000122DD001211D4A2171126822F0604250
:1018400022601B4A1268E272100A110C042B4FEA44
:101850001262A072617222720DD8083323440022F2
:10186000103403F8012BA342FBD10E4B20220120A0
:101870001A6003B0F0BD0F4A1268E273100A110C2F
:10188000072B4FEA1262A07361732273E5D9ECE76C
:10189000064922710A68C2F38A422260D1E700BF7A
:1018A0003C99FF1F3040024080400240844002408B
:1018B000884002408C4002402DE9F041CE8882B041
:1018C00088461EB12E4B1B680093009E2D4C2C4F5A
:1018D00008252201136803F07063B3F1006F11D083
:1018E000B8F806302BB901350F2D274C37DC2C44C6
:1018F000EFE73A680192019A921B93422FD904F0C4
:1019000005FEE6E7136098F8043003BBD8F8001032
:101910001E4B1F482D0189040B402B50D8F808306E
:101920001C481D491BBA2B50D8F80C301BBA6B5001
:1019300098F80430BBB998F805301B0403F4702301
:1019400043F040630120136002B0BDE8F081D8F895
:1019500000300F492D0123F060436B50DEE700207B
:1019600002B0BDE8F08198F805301B0403F4702341
:1019700043F046630120136002B0BDE8F08100BF70
:101980003C99FF1F10240004082400040000FC1FE1
:1019900084400240884002408C4002400369D3F8F2
:1019A0003801D3F83431C01A704700BF0369D3F847
:1019B0003411D3F83821914208D2D3F83421511C84
:1019C0001A44C3F8341192F8300070474FF0FF30DA
:1019D000704700BF0369D3F83411D3F8382191421E
:1019E0003DBFD3F834219B1893F830004FF0FF30FF
:1019F000704700BF704700BF0369D3F84422B2F5B7
:101A0000817F03D90123037100207047D3F844225A
:101A100010B49C180132C3F8442284F83C11012010
:101A200010BC7047F0B40569D5F84432B3F5817F36
:101A300020D8D5F84462D5F84442C6F581760136FF
:101A4000964205F59E7302D20127324607714AB1CC
:101A5000013C23448D1811F8014B03F8014FA942B2
:101A6000F9D10569D5F844321344C5F8443210461B
:101A7000F0BC704701230371F0BC0020704700BF29
:101A800038B503690A4A026093F84822022A0446DC
:101A900001D0204638BDD3F86452002DF9D0284635
:101AA00004F0B8FB284604F0DBFB204638BD00BF3D
:101AB00018AE00002DE9F047002B40F2646740F2B9
:101AC000036640F203240BBFB846B0464FF41979C1
:101AD000A1469DF8207071BB012A31D80C461646EC
:101AE00005469A46AFB190F84B2290F84A32002A48
:101AF0000CBF00270227032B0BD8DFE803F0473C7D
:101B0000310239461F2003F06DFB39461A2003F0DD
:101B100069FBC4B9002E44D0012E05D12B4A2C4BB1
:101B2000C2F80090C3F8009085F84A6285F84BA28D
:101B30000120BDE8F087012902D1941E012CCDD9E6
:101B40000020BDE8F087012CEED1022E36D0032E06
:101B5000EAD1204A204BC2F80080C3F80080E3E7B6
:101B600039461E2003F03EFB39461D2003F03AFBA8
:101B7000002CE8D1CEE73946122003F033FB39467A
:101B8000132003F02FFB002CDDD1C3E739461120D1
:101B900003F028FB3946102003F024FB002CD2D19F
:101BA000B8E70E4A0E4BC2F800900120C3F800902F
:101BB00085F84A6285F84BA2BDE8F087094A0A4BCE
:101BC000C2F80090C3F80090AEE700BF0CA004403C
:101BD00008A0044000D0044004D0044004A0044005
:101BE00000A004402CB0044028B0044001280CBFE1
:101BF00002200120704700BFF8B5C3681B789B0620
:101C000010D483680D4680211970C36812211970A1
:101C100090F84932012B044606D08AB980F8482250
:101C20000120F8BD0020F8BD1A4675B9454B4FF0AC
:101C300080711960022A0FD0012084F84802F8BD93
:101C4000531E012BF1D90120F8BD012DF2D13D4BDE
:101C50004FF000711960EDE7D4F86462002E65D092
:101C60003379102B2ED0002D39D132683649938B21
:101C7000364F43F0080393833279531102F1100079
:101C80009B0041F8207003F1604303F5614301219B
:101C900002F01F0201FA02F231681A608B8B43F0E6
:101CA00002038B83337903F1804303F504339622D7
:101CB0001D701A700022022384F85A2284F84832D8
:101CC0000120F8BD304604F0A5FA304604F0C8FA09
:101CD00000230120C4F8643284F84802F8BD012DC5
:101CE000E8D132681849938B194F43F00803938366
:101CF0003279531102F110009B0041F8207003F17A
:101D0000604303F5614302F01F02954032681D6095
:101D1000938B43F002039383337903F1804303F5FC
:101D200004330021972219701A70C3E7082004F0C9
:101D300093FA314607463E4604F008FAC4F8647246
:101D40008EE700BF00E100E00082FF1F6D2B000066
:101D5000792B0000F0B5284EDFF8ACE0A6FB01437C
:101D6000A6FB02429E0937027546960914240023F9
:101D7000B7FBF6F604E00133372B1BD055F8044FC0
:101D800022029642F7DA83BB14241C4A4568B1FB51
:101D9000F4F491422B70C0F84C4207D8184B82697A
:101DA000A3FB0131C1F307511170F0BD8369042217
:101DB0001A70F0BD002422464FF470274FF470656E
:101DC0004FF0360CB21AF71B002A87EAE776A6EB2B
:101DD000E776B8BF5242964202DD0A4AD35CD4E7A6
:101DE000084B2C4613F80C30CFE703F1FF3C5EF8AC
:101DF0002C502F02E6E700BFD34D6210FF6BDC02D0
:101E0000819F5E160CAF000030AE0000F0B583B0CD
:101E1000044696469DF820009DF824209DF82870E1
:101E20009DF830600D4689BBDFF8DCC0DCF800109F
:101E300041F04001CCF80010002184F849E284F818
:101E40005112BEF1000F33D163692021197023684C
:101E500083F800E0E36983F800E000213B4600914D
:101E600020462946FFF726FE0B9A26492046FFF713
:101E700071FF324629462046FFF7BEFE94F84932EC
:101E800093B3A368C0221A7003B0F0BD0129D3D167
:101E9000DFF874C0DCF8001041F08001CCF80010CD
:101EA000002184F849E284F85112BEF1000FCBD032
:101EB000616970B14FF0280E81F800E09842216806
:101EC00017D95B00DBB20B704000E369C0B2187039
:101ED000C3E74FF0200E81F800E021685B00DBB221
:101EE0000B70E3691870B8E7A36880221A7003B01A
:101EF000F0BD4000C0B208705800E369C0B218706D
:101F0000ABE700BF00512502348004402DE9F041C9
:101F1000154604460F46984603F06AF90DB9D4F801
:101F2000685203F065F9A3681A789206064609D547
:101F3000B4221A7094F84832013B012B23D90120B6
:101F4000BDE8F081CDB9E3681B7803F0200303F00E
:101F5000FF02002BF6D1A36884F84922B0221A7040
:101F6000A3681B7803F0200303F0FF00002BE1D1EE
:101F7000042384F85132BDE8F08103F039F9801B65
:101F80008542E0D8ECE702F0C9FF97B1012F10D1EC
:101F90000F4B1B788342D2DB0F2813DD67B1012F73
:101FA0000AD1A0F110030A4ADBB213703846BDE82B
:101FB000F081084B1B78EDE7A0F11003054ADBB276
:101FC0001370BCE7012088F80000BDE8F08100BF75
:101FD00019E400E018E400E00369490083F83C11CB
:101FE000036900220121C3F84412027183F85122CF
:101FF000704700BF2DE9F043044683B0D0F8440297
:1020000000258DF8075070B190461E460BB9D4F8E4
:102010006862E36812221A7020460DF10703324607
:10202000FFF774FF10B903B0BDE8F08394F84832AD
:10203000B3B19DF807209AB9591E0129F3D801259B
:10204000022B84F8515284F85082C4F840225ED0AA
:10205000A368F0221A70236994F83C211A70E2E711
:1020600003F0C6F8012384F85132D4F8445284F8BE
:1020700050820746EDB104F23B1800254FF00209EB
:1020800036BB236918F8012F1A70E2681378980795
:10209000FCD582F80090E2681378DBB2D9061DD433
:1020A000DB0724D4D4F844320135AB42E8D894F8A5
:1020B0005082D4F84432AB4225D9042384F85132FB
:1020C000B8F1010FA3680CBF8022B0221A70AAE7F2
:1020D00003F08EF8C01B8642D3D8E8E7102307210F
:1020E00084F851121370A36880221A709BE735B1EF
:1020F000062384F85132A36880221A7093E70523DF
:1021000084F85132F7E7002384F85132D8E7D4F845
:102110004432042B9CD9D4F8641284F85A520E68C5
:10212000D4F84432F2710868357104F59F77727102
:102130003760057242728272C2720D68033BEB8394
:10214000096818465B42EB60C882D4F864122069C3
:102150000B68B0F1804F9A7118611A755A750B6847
:1021600001D39A6832B9002201205A729A72DA7247
:1021700018720B6800221A765A769A76DA7667E732
:102180002DE9F04383B000258DF807509DF82870A5
:102190000B9E2BB1B3F5827F05D3082380F8513213
:1021A00003B0BDE8F083C0F83451C0F85432C0F831
:1021B00038510EB9D0F86862C368904612221A707E
:1021C0000DF1070332460446FFF7A0FE0028E7D0D2
:1021D00094F84832C3B19DF80720AAB9591E0129C5
:1021E000DED802218B4284F8507284F8511200F03C
:1021F000EA80A268F02111704FEA480343F001031E
:102200002269DBB21370CBE702F0F2FF4FEA48031A
:10221000226984F8507243F00103DBB2022184F892
:1022200051121370E268054613789807FCD5022313
:102230001370E2681378DBB2D90608D4DA070FD539
:10224000A3680521802284F851121A70A8E7102390
:10225000072184F851121370A36880221A709FE737
:10226000D4F854320322012BA36884F851220CBF06
:10227000A822A0221A7023691B7802274FF00008B9
:102280004FF0B009D4F83821D4F854329A4287D2AA
:1022900094F85132032B83D1E26813789B07FCD565
:1022A0001770002E46D1D4F83831D4F854220233B6
:1022B0009A422ED13346A268A8211170D4F8381161
:1022C000D4F854220131914265D3A26884F859822E
:1022D00082F8009022691078D4F83821A1180132D0
:1022E000C4F8382181F83000002B4CD194F85032DA
:1022F00084F85182012BC5D100231822013AFDD167
:10230000A26880211170002BBCD0012384F85932BF
:10231000B6E7D4F838310133934244D2002322691E
:102320001078D4F83821A1180132C4F8382181F886
:102330003000E8E702F05CFFD4F83831D4F85422DA
:10234000401B991C86428CBF002301239142B2D0CE
:102350008642DED894F859320BB90123ABE7D4F8A2
:10236000381101318A421AD8A36884F8598283F857
:10237000009023691978D4F83831E2180133C4F891
:10238000383182F8301094F850320422012B84F84E
:102390005122B2D0B9E7002BC1D094F85932002BAA
:1023A000E2D10123BBE7A36884F8598283F8009047
:1023B00023691978D4F83831E2180133C4F8383178
:1023C00082F8301092E7D4F85432042B7FF611AF24
:1023D000D4F8641220690B68012584F85A52B0F1D0
:1023E000804FDA7118601A715A710B6801D39A68BC
:1023F00032B9002201205A729A72DA7218720B688E
:10240000D4F86402D4F85412056800221A735A737F
:102410009A73DA73AA7103686A7504F130062E6143
:1024200001262E755A729A72DA721E724B1E01685C
:10243000CB8300681A465B428B61C282D9E600BF3B
:1024400070B51546044602F0D3FE0DB9D4F86852B3
:1024500002F0CEFE064694F85132002B50D094F88C
:102460005132052B4CD094F85132062B48D094F8B9
:102470005132072B44D094F85132042B40D094F8B9
:102480005132082B3CD0002DE5D002F0B1FE801B6C
:102490008542E0D802F0ACFE801B854232D894F829
:1024A0004832022B2ED194F85A325BB394F8513251
:1024B0009BB194F85132052B0FD094F85132062B72
:1024C0000BD094F85132072B07D094F85132042BDB
:1024D00003D094F85132082BE8D1042384F8513208
:1024E00094F85132012B11D1042384F85132602326
:1024F000013BFDD194F85102B0FA80F0400970BD63
:10250000002DC7D194F85132012BEDD094F85132FF
:10251000022BE9D094F85132032BE8D1E4E700BF55
:1025200070B50C46154606461A462946049B2046B9
:10253000FFF760FD049A29462046FFF781FF3369C3
:1025400093F85132043B042B0CD8DFE803F0030965
:1025500007030500042070BD012070BD032070BD7D
:10256000022070BD3079003018BF012070BD00BF5F
:10257000F0B583B09DF8206013B9002003B0F0BD22
:10258000099F04460D468DE8C000FFF7F9FD099A42
:1025900029462046FFF754FF0028EED0D4F8380132
:1025A00003B0F0BDD0F83421D0F838319A4208D2C7
:1025B000D0F834315A1C0344C0F8342193F8300069
:1025C00070474FF0FF307047F8B5C16887680D78E5
:1025D0003B78DBB203F02002EDB212B313F0100F20
:1025E00090F85A3277D0022B00F0D28090F85A320D
:1025F000032B00F0CD8090F85132012B00F0D181F7
:1026000090F85132DBB2022B00F0028290F8513286
:10261000042B00F0878180233B70C36802221A706C
:10262000F8BD02F0FF06EA06044623D405F0400296
:1026300002F0FF0012BB03F0100303F0FF06002BB3
:102640007CD015F0010540F06281D4F84022D4F826
:1026500044329A4207D2D4F840325A1C2344C4F878
:10266000402293F83C5123691D70A368D0221A7050
:10267000E16868E010236F060B7028D594F851329A
:102680000A2B00F0DA8005F0040505F0FF03002DA9
:102690005CD0A3680021D022092084F85102C4F83C
:1026A00044121A702269D4F8601213785B0884F817
:1026B000523209B188472269D4F84432002B00F025
:1026C0002E8194F83C6116700123C4F84032E3680F
:1026D00002221A70F8BD022B00F0888090F85A325E
:1026E000032B00F08380D0F83831D0F85422023325
:1026F000934200F0078190F85132042B00F0FD80E6
:10270000D0F838310133934280F0D58090F85132BF
:10271000042B00F0CB80D0F838310269591CC0F886
:1027200038110344127883F8302090F85132042B8A
:1027300000F02E81C36802221A70F8BD94F851325D
:102740000A2B00F0448102230B70F8BD94F84A2252
:1027500084F85832012A00F06B81002A00F062816F
:10276000022A00F09381032A00F00D81A368C022A1
:102770000A20002184F85102C4F838111A70236924
:102780001B785B0884F85232E36802221A70F8BDA5
:10279000D0F8642213689B8B1C0603D590F85A323C
:1027A000022B78D090F85A32032B52D0BA4B1279C0
:1027B0001C68012393402342C5D0B84BB8491A7016
:1027C000D0F8642212790A700023E90680F85A32A0
:1027D00040F1D780C2681221072480F8514211705D
:1027E000826880211170C0F84032F8BDD0F86432A0
:1027F0001A68928B120603D590F85A22022A3FD00B
:1028000090F85A22032A00F09480A34C1A79246885
:1028100001239340234296D0A149A04B0A70D0F8DF
:10282000642212791A7082680023802180F85A325B
:1028300080F851321170C16885E7D4F85C32002B02
:102840003FF421AF0022C4F83421D4F8380198476E
:1028500019E70B781D06FCD5924B12791A700023EC
:1028600080F85A32D0F844320269013BC0F8403255
:10287000D0F84032034493F83C311370C16862E7EA
:10288000864A1B7913708368E8221A700323C16893
:1028900080F85A3257E7814B12791A708368F02218
:1028A0001A700323C16880F85A324CE790F8593205
:1028B000002B3FF430AF90F851220023042A80F817
:1028C000593201D080F851328368B0221A70D0F8A2
:1028D00038310269591CC0F838110344127883F862
:1028E000302090F85032012B7FF41FAF1823013BAA
:1028F000FDD1836880221A7017E790F85932002BB7
:102900007FF4FEAEE8233B70D0F85422F8E6C023F3
:102910003B702369E1681B7884F8510213E784F85F
:102920003C31D0E690F85032012B4DD0B0233B70B3
:1029300000E75C4A1B791370002380F85A3290F844
:102940005122042A18BF80F851328368B0221A70CD
:10295000D0F854320269013BC0F83831D0F8383130
:10296000591CC0F838110344127883F8302090F8CD
:102970005032012B05D11823013BFDD18368802201
:102980001A70C168DFE648491F2002F045FBEDE6FA
:1029900090F85932002B7FF4CDAE012380F85932E4
:1029A000C8E605F0100303F0FF02002B46D115F036
:1029B000010551D080F85A22D0F84032002B40F067
:1029C0008F80052380F8513280233B70B2E694F863
:1029D0004A2284F85862012A00F09280002A78D0B6
:1029E000022A00F09480032A00F0A48023691B7857
:1029F000D4F83821B2F5817FDBB23FF6A4AED4F82B
:102A00003821A0180132C4F8382180F830309AE615
:102A1000EC0632D4E9074BD50522802380F85122F9
:102A20003B7087E603222149112002F0F5FA9DE66A
:102A300003221E49122002F0EFFA97E60023122229
:102A4000072480F85A3280F851420A708268802147
:102A50001170C0F84032F8BDD0F840320133C0F8F0
:102A60004032D0F8442293423ED390F8503280F85E
:102A70005152012B7FF45AAFA6E70722122380F8A8
:102A800051220B70836880221A70F8BD0322064918
:102A90001E2002F0C1FA69E62C8000401F80004031
:102AA0001E8000401C800040392C00002D2C0000AE
:102AB00090F85A22012A31D0D0F85432012B0CBFA1
:102AC000E823E023032280F851223B7003691B783E
:102AD00030E623490322112002F09EFAE16885E7DF
:102AE000062380F851326FE790F85A32012B27D035
:102AF000D0F840320269034493F83C31137019E670
:102B000017490322122002F087FAE1686EE715499F
:102B100003221E2002F080FAE16867E7E12280F8D4
:102B20005A323A70D0F864220F4B12791A70036946
:102B30001B78FFE50B491F2002F06EFAE16855E7AC
:102B40000222F12380F85A223B70D0F86422064B0F
:102B500012791A70036990F83D211A70EAE500BFF6
:102B60002D2C0000392C00001B8000400021014862
:102B7000FFF72ABD2C88FF1F01210148FFF724BD64
:102B8000988AFF1FC3681B7803F02003CBB903F0BA
:102B9000FF0290F84A32012B10B5044680F851220A
:102BA00027D053B3022B32D0032B37D0D4F85C326A
:102BB000CBB10022C4F83421D4F83801BDE810406C
:102BC000184790F858320133DBB2012B80F85832A5
:102BD0000AD990F84A32012B24D093B1022B13D09A
:102BE000032B18D0704710BD90F84932012BF0D15B
:102BF000F8E7122002F08CFAD8E7112002F088FAE8
:102C0000D4E7112002F084BA1E2002F081BA1E20FF
:102C100002F07EFACAE71F2002F07ABA1F2002F003
:102C200077FAC3E7122002F073BA00BF002101480F
:102C3000FFF7A8BF2C88FF1F01210148FFF7A2BFA3
:102C4000988AFF1F2DE9F843134BDFF85C90DFF8FB
:102C50005C80124E124D1E6000244FF47A774A4673
:102C600041461C711C739F6018465C731D6107F020
:102C700081F90C4B4FF0010E05F51B751C711C738F
:102C800083F80DE04A46414618461D619F601E606C
:102C9000BDE8F84307F06EB92499FF1F18AE000095
:102CA0002C88FF1F1099FF1FFC87FF1F811A00004F
:102CB0002DE9F04F87B082460D4627490493DDE9A0
:102CC00012899DF840409DF844B00592DDE91467F3
:102CD00000F04EF9062029468AF80000504600F020
:102CE000E3F9059A5046114600F0DEF9049B504680
:102CF000194600F0D9F92146504600F0D5F912A541
:102D0000D5E900455946504600F0CEF9DFF84CC0F1
:102D10004FF0000B42464B465046CDE90245CDE907
:102D200000BC00F06DFA0FF22809D9E9008932469B
:102D30003B465046CDE91245CDE9108907B0BDE8C4
:102D4000F04F00F05DBA00BF0000000065CDCDC1BE
:102D5000000000E04D62503F12F201000000F03F21
:102D60002DE9F04F8BB0DDE91689CDE90823DDE9C7
:102D7000142304461EA7D7E900678A46CDE90689D1
:102D800021499DF860500FF27009D9E90089CDE919
:102D9000042300F0EDF8514606200FF2640BDBE946
:102DA00000AB2070204600F07FF9DDE908232046C3
:102DB000CDE90267CDE9008900F0C8F9DDE9042317
:102DC0002046CDE90267CDE900AB00F0BFF920460F
:102DD000CDE90267CDE90089DDE9062300F010FAAC
:102DE000294620460BB0BDE8F04F00F05DB900BFAA
:102DF0000000000065CDCDC100000040E17A843FB5
:102E0000000000A09999B93F14F20100FFFFFFFFF5
:102E10002DE9F04F89B091469B46DDE91423CDE9B9
:102E20000623DDE91823044688463F499DF848609B
:102E30009DF84C709DF958A09DF96850CDE9042388
:102E400000F096F80620414620704FEA0B1B204602
:102E500000F02AF90BF0300B09F00F0141EA0B01E9
:102E600041F0C001204600F01FF906F00F0141EAD1
:102E700007110FF29409D9E9008925A7D7E900675E
:102E8000C9B2204600F010F9DDE90623CDE900675C
:102E90002046CDE9028900F0B3F95FFA8AF12046B5
:102EA00000F002F90022214BDDE9040106F0C2F82E
:102EB0000022002306460F4606F0E2FC38B916A3AE
:102EC000D3E900233046394606F0F8FC50B1FF2123
:102ED000204600F0E9F8E9B2204609B0BDE8F04F1D
:102EE00000F0E2B80FF23809D9E900891049002052
:102EF000CDE9020132463B46CDE90089204600F08B
:102F000063F8E8E7AFF300800000000065CDCDC1B5
:102F1000000000000020AC40000000A0C420E03F02
:102F2000000000E04D62603F19F201000000F03F38
:102F30000000F0BF037810B410225C1C0470CA5467
:102F400010BC704710B40624084A047083B012689D
:102F50000192019C01720022FF21C0F8F0404172F1
:102F6000C260426003B010BC704700BF3C99FF1FB5
:102F7000054B416082B01B680193019BC0F8F030A3
:102F80000022C26002B070473C99FF1F30B401F0CC
:102F90000701094C017082B021680191019C9DF8E4
:102FA0001010426000250372C560C0F8F040417205
:102FB00002B030BC704700BF3C99FF1F0023436044
:102FC000C360C0F8F0307047F8B516461F46044697
:102FD000DDE908233046394606F048FCE0B9DDE972
:102FE00006233046394606F003FB0022002306463E
:102FF0000F4604F1100506F057FCA0B100220E4B5D
:103000003046394606F018F806F078FCE368E854D4
:10301000E3680133E360F8BDE368E218FF210133A0
:103020001174E360F8BD0022034B3046394606F0C8
:1030300001F806F063FCE9E70000E03F82B002AB74
:10304000C26823F8021D00F110011B888B52C3686F
:103050000233C36002B0704730B482B002ABC268C2
:10306000019133F8045D00F110018C188D529B78AA
:10307000A370C3680333C36002B030BC704700BFA5
:1030800030B482B002A961E9022302460B4603CBA9
:10309000D36802F11004E518E0506960D368083382
:1030A000D36002B030BC7047C368C21801331174DA
:1030B000C3607047002A12DD70B40D78C36800F158
:1030C00010066DB1002402E011F8015F4DB1F55416
:1030D000C36801340133A242C360F5D170BC7047AC
:1030E0002C460021F154C36801340133A242C3606D
:1030F000F8DCF3E7F0B583B006F07AFA002200239B
:1031000006460F46089C099D06F0CEFB90B10022B2
:103110000D4B3046394605F08FFF06F0EFFB02AB52
:10312000226823F8020D1B88AB5223680233236008
:1031300003B0F0BD0022044B3046394605F07AFF5B
:1031400006F0DCFBEBE700BF0000E03F2DE9F043B9
:10315000164683B01F460446DDE90C233046394647
:10316000DDE90A8906F082FB78B102AB47F6FF720F
:1031700023F8022D04F11001E2681B888B52E368EA
:103180000233E36003B0BDE8F08304F1100542466A
:103190000C344B46304639460B950A9403B0BDE8D3
:1031A000F043FFF7A7BF00BFF0B583B006F020FAE9
:1031B0000022002306460F46089C099D06F074FB7A
:1031C00090B100220D4B3046394605F035FF06F030
:1031D00095FB02AB226823F8020D1B88AB522368D3
:1031E0000233236003B0F0BD0022044B3046394661
:1031F00005F020FF06F082FBEBE700BF0000E03F98
:103200002DE9F043164683B01F460446DDE90C2342
:1032100030463946DDE90A8906F028FB78B102AB71
:103220004FF6FF7223F8022D04F11001E2681B88AB
:103230008B52E3680233E36003B0BDE8F08304F12E
:10324000100542460C344B46304639460B950A94DD
:1032500003B0BDE8F043FFF7A7BF00BF48B32DE9B7
:10326000F84304469846894699B1561E002502E067
:1032700027687F68B847102216F8011F0135002320
:10328000204602F0FFFF4D454FF00102094920465C
:10329000EED1B8F1000F01D1BDE8F88323680649EB
:1032A0005B682046002298472046BDE8F84302F0BC
:1032B000D9BF704744AF0000E0AC0000002950D0F7
:1032C00070B54468002C4BD0C368002B4ADD0B68F6
:1032D0000C46054616462B495B6804222046984753
:1032E00000230A222978204602F0CCFF23682649D1
:1032F0005B6805222046984700230A226968204619
:1033000002F0C0FF236821495B68082220469847E5
:1033100000230A22297A204602F0B4FF23681C49C0
:103320005B6806222046984700230A22697A2046D5
:1033300002F0A8FF236817495B68052220469847DA
:10334000E968204602F0DEFF6EB1236812495B682F
:103350002046002298472046BDE8704002F082BF18
:1033600070BD704770BD23680C495B68062220461B
:103370009847334605F11002297B2046FFF76EFF80
:10338000E3E700BF50AF000058AF000060AF00009F
:103390006CAF000074AF0000E0AC000048AF00006C
:1033A0002DE9F0474568D0F8F040E6B0002900F07C
:1033B000DC80002D00F0D980C368002B40F3D5805D
:1033C0000DF108090B33DBB2102288460746932122
:1033D000022089F80020102B4FF0040289F80330F6
:1033E00089F8010089F8021003EB01068DF8072027
:1033F00000F0C38005213B788DF80710102B09F8E9
:1034000002301E4400F01481EAB24B1CDBB2102AD9
:103410008DF8073009F80120164400F001812D0ACB
:10342000EAB2591CC9B2102A09F8032016448DF8D3
:10343000071000F0ED80C5F307224B1CDBB2102A09
:1034400009F801208DF80730164400F0D9807A7A07
:1034500009F803200133DBB2102A8DF80730164437
:1034600000F0C6803A7A09F803200133DBB2102A53
:103470008DF80730164400F0B380E2B2591CC9B28F
:10348000102A8DF8071009F80320164400F0A080D8
:10349000240AE0B24A1CD2B2102809F801000644FE
:1034A0008DF8072000F08C80240AE3B2511CC9B2C9
:1034B000102B09F802301E448DF8071078D0230A2B
:1034C0004A1CD2B2102B09F801308DF807201E4497
:1034D00066D0F968531CC8B2DBB2102809F80200A4
:1034E00006448DF8073052D000291CDD07F10F0A81
:1034F000002502E00135A94215DD1AF8014F09F84F
:1035000003405A1CD3B2102C8DF807302644F1D159
:1035100049460DF10700FFF70DFDF9689DF80730EA
:103520000135A942E9DC16F0FF0121D0591C724295
:10353000D2B2C9B2102A09F8032003BF023309F836
:103540000120DBB20B465A1CD2B21020032109F82D
:10355000030009F802100233D8F80000DAB28DF83F
:103560000720436849464046984766B0BDE8F08763
:103570005A1C09F80310D3B2E5E749460DF10700DC
:10358000FFF7D8FC9DF80720511CC9B233E7494624
:103590000DF10700FFF7CEFCF9689DF80730A3E7AF
:1035A00049460DF10700FFF7C5FC9DF8072090E79D
:1035B00049460DF10700FFF7BDFC9DF807107EE7B7
:1035C00049460DF10700FFF7B5FC9DF807206BE7B2
:1035D00049460DF10700FFF7ADFC9DF8071057E7CE
:1035E00049460DF10700FFF7A5FC9DF8073044E7B9
:1035F00049460DF10700FFF79DFC9DF8073031E7C4
:1036000049460DF10700FFF795FC9DF807301EE7CE
:1036100049460DF10700FFF78DFC9DF807100AE7FA
:1036200049460DF10700FFF785FC9DF80730F6E6E7
:1036300049460DF10700FFF77DFC9DF80710E3E612
:10364000F0B400240025C0E9084590F827101C4D6F
:103650001C4C1D4F1D4A056028260B25C46401F033
:103660000F011B4C4765A0F870601A4F85608226D9
:103670003225C26344640022012461F03F010762E5
:1036800080F8256080F8265080F82820C262026306
:10369000C265026602658265426680F86820C2667D
:1036A0008267C2670274426102760271427182715E
:1036B00002648264846380F82710F0BC704700BF06
:1036C00084AF00003CB1000090AF0000B0B000003B
:1036D00094B100000100C0FFC16301B17047036CE9
:1036E00003B9014BC3637047B0B000004164704739
:1036F00070B4BDF80C609DF810404FF6FF75AE42F7
:1037000005D0056AC5F3140545EA465505624D1C0A
:1037100006D0056A6D0DC1F314016D0529430162E0
:10372000FF2A18BF80F82520FF2B1CBF5B0080F804
:103730002630FF2C09D090F82720240164F07F0365
:1037400002F00F041C4380F8274070BC704700BF94
:10375000C16570470023417180F8282003767047C7
:1037600070B4040CE5B2C0F382662402EF2D187029
:1037700004F47F440E70039B4FEA1021C0F30060F5
:1037800008D9C9B20C43FF2144EA0040197070BC4B
:103790001060704744EA0040197070BC10607047B8
:1037A00010B4C1F30724EF2C07D9800600F0E050D5
:1037B00042EA0122104310BC704742EA032280060D
:1037C00042EA012200F0E050104310BC704700BFF5
:1037D000B0F87430B0F872209A4225D070B5054622
:1037E00082B005E0B5F87220A5F874309A4218D07E
:1037F000B5F87040E96E2868013393FBF4F204FBDE
:103800001233DCB222018B1889585E7B1A7900963C
:10381000053306682846B047A3B20028E2D102B0BB
:1038200070BD012002B070BD012070472DE9F0434A
:1038300083B00E4614461D4680469DF82870FFF75B
:10384000C7FF78BBD8F86C1041B3B8F87230B8F83D
:103850007000B8F874E0013393FBF0F200FB123310
:10386000DBB29AB2964519D01B01C818A8F872208D
:1038700014D0CE500471477364B1013C2C44691ECE
:103880000430073511F8013F00F8013FA14201D093
:10389000A942F7D1012003B0BDE8F083002003B0B6
:1038A000BDE8F083D8F800300097D3F800902246A6
:1038B0002B4631464046C8470028C3D0EAE700BF40
:1038C0004FF6D863994208D0114B124A8B4204D06C
:1038D0002BB152F8043F8B42FAD1012070470029E6
:1038E000FBD010B400F15004583054F8042F1AB132
:1038F0001368994209D023B9A042F6D1002010BC28
:10390000704752F8043F9942F5D10120F7E700BF14
:1039100000ED0100FCAF000030B400241C70002951
:1039200038D00124B1F5684F147009D04FF46A44BF
:103930008C42204D04D034B155F8044F8C42FAD15A
:10394000012030BC70474FF6D864A14208D01A4C11
:103950001A4DA14204D044B155F8044FA142FAD106
:1039600001211970084630BC704700F148051470F9
:10397000503055F8044F1CB122689142E0D062B932
:10398000AC681CB122689142EAD05AB98542F0D1A4
:103990000020D6E711700846D3E754F8042F91426F
:1039A000EDD1CDE754F8042F9142EED101211970E9
:1039B0000846D8E7ECAF000000ED0100FCAF0000C6
:1039C0002DE9F04F87B00DF10D04064690460846EC
:1039D00004AA0DF10B011D46009403ABFFF7C0FED6
:1039E00030460DF10E030DF10F020499FFF794FF1D
:1039F00018B9B368DB0600F1F7809DF80E30002B94
:103A000040F08480864B96F868901B680593DDF83B
:103A100014B0B9F1000F00F0ED80D6F864E0049A1C
:103A20009EF8F5409DF80C30002C40F0F680714671
:103A3000CA46DC4610E0D1F8F070674538BFA246B0
:103A400004F1010438BFBC46A14501F1FC0100F0BE
:103A5000D38091F8F57047B94F689742EBD10F7A50
:103A60009F42E8D1A14500F0C780C4EB8417BF0096
:103A7000BE449DF80FA09DF80DC08EF8F7004FF0E2
:103A800000098EF8F6A08EF8F5909DF80B10CDF891
:103A900000C07046FFF77AFA736E9DF80E203B4423
:103AA00083F8F990736E002A7FD03B442A7883F81C
:103AB000F820736E69783B44B8F1020F1A46D9605A
:103AC00017DDA844023501E0736E3B4493F8F920FA
:103AD00015F8011B134445451974736E3B4493F864
:103AE000F92002F1010283F8F920EDD1726E3A4417
:103AF000D16892F8F9308B42ACBF0123002382F8E1
:103B0000F43071DB204607B0BDE8F08F95F800C0B7
:103B10001CF01F0F3FF476AF96F86810002963D0B1
:103B2000D6F864E004989DF80C707346002404E015
:103B30000134A14203F1FC0356D05A688242F7D106
:103B40001A7ABA42F4D1A1424ED0C4EB8417BF0016
:103B50000EEB070090F8F830013363450BD00122DB
:103B6000002380F8F52080F8F630FFF727FA706E12
:103B700095F800C03844B8F1010F80F8F8C0B5DD01
:103B8000A8440135736E15F8011B3B44A84593F812
:103B9000F92013441974736E3B4493F8F92002F131
:103BA000010283F8F920EDD1A0E73B4483F8F82027
:103BB000736E3B44C3F80C80B8F1000F29D0A844C1
:103BC00001E0736E3B4493F8F92015F8011B134490
:103BD000A8451974736E3B4493F8F92002F1010271
:103BE00083F8F920EDD181E74FF0FF34204607B08C
:103BF000BDE8F08FDC46CA460CF1640CDC45F3D21C
:103C0000CA45F1D05446049A9DF80C30D6F864E0C9
:103C10002BE7012283F8F42074E7002425E700BF96
:103C20003C99FF1F8368DA0700D470470A46417940
:103C300003290AD01B0710B408D4012903D08379C3
:103C40009BB1012B0BD010BCEFE77047836B147A4C
:103C5000002BF2DD90F82830A342EED1EFE7C168E7
:103C600010BC10460022FFF729BBC16810BC1046EB
:103C7000FFF796BB91F8F73013B983685B0701D45F
:103C8000FFF7D0BF704700BF2DE9F043FF29BFB059
:103C90000E460546144607D0002C02DBAB6BA34250
:103CA00006DC3FB0BDE8F083531CF5D10024F5E7F6
:103CB00004EB4407FF00EB1901A893F828102F44E8
:103CC000FFF740F9D7E9088901A84FF46E418DF854
:103CD0000D60FFF74DF942464B4601A806218DF8CD
:103CE0000410FFF7CDF9224601A9284600F0E0F9BB
:103CF0003FB0BDE8F08300BF037C002B34D12DE939
:103D0000F043436E83B00446002B40D0E56E002D97
:103D10007BD0237953B30120E568207415B1A379D2
:103D2000012B28D0C82001F087FA237C0BB9227917
:103D3000B2B16279A2B1033A012A11D9E568002330
:103D4000636115B1A379012B7DD00022FF212046AC
:103D5000FFF79AFF414A237C12680192019A62613F
:103D6000184603B0BDE8F083184670472368204624
:103D70005B689847D0E72B68002851D038495B68CA
:103D8000102228469847284602F06CFACAE790F8B5
:103D90006870002F4DD0C7EB8710800002F05EFAEC
:103DA000013F064635464FF000084FF001090F214C
:103DB0002846FFF7C7F8013F85F8F48085F8F590AD
:103DC00085F8F6802846FFF7F9F87B1C05F1FC051D
:103DD000EDD194F868306666002B97D00025334605
:103DE000A8462E46012700E0636E2B44184683F850
:103DF000F57083F8F680FFF7E1F894F86830013643
:103E0000B34205F1FC05EFDC80E7B4F87000000177
:103E100002F024FAA4F87250E066A4F8745078E72F
:103E200010495B68192228469847284602F01AFA7A
:103E300078E7052380F8683040F2EC4002F00EFA93
:103E400004270646AEE72B6807495B68132228461D
:103E50009847284602F006FA77E700BF3C99FF1F13
:103E600008B000001CB0000038B000002DE9F04F91
:103E70004E6816F0FF0F1CBFFF234B72002A89B05B
:103E800027DB02EB420200EBC20292F828200A7202
:103E9000FD2A1AD84B7A05460C4608783146FFF7BA
:103EA0007FFC6B79824683B17EB12E79012E12D0D0
:103EB00007D3022E09D12046E968FFF771FA0120E5
:103EC00004E02846FFF718FF60B9002009B0BDE8FC
:103ED000F08F0A7ADCE72046E9680022FFF7EEF966
:103EE0003046F3E76B6933B16A4A12680592059A66
:103EF000FA339342E9D8E668082E1ADC616828464E
:103F0000FFF7DEFCA8B90090F2B2514604F11003AD
:103F10002846FFF78BFC064628B9E86818B1AB794C
:103F2000012B00F09380AB681B0700F185803046C1
:103F3000CCE7594AF31F82FB03121A44DB17C3EB89
:103F4000A203564A023312680393002B4FEA42122F
:103F50007ADD53B2002702933246B9464FF0010B87
:103F60000DF12008029B0BF1FF3633438DF818301A
:103F7000002E00F0818007F10F01214406A80123E3
:103F8000974228DA013311F801EF00F801EF082B0E
:103F900007F10107F4D101230093082206AB514633
:103FA0002846FFF743FC78B9B0460646E86810B1EA
:103FB000AF79012F16D0394B384A1B680133072BD4
:103FC000C8BF00231360AEE7039B5B453ADDE268A0
:103FD0000BF1010BC6E706AA134403F8019B9845B1
:103FE000FBD1D8E703682E495B6804229847334623
:103FF0006168E8680A2202F045F9E868294903681F
:1040000008225B6898474146E86802F07BF9E86857
:10401000254903683A465B6898470399E86802F0C7
:1040200071F9EF6821493B6838465B680C22984774
:10403000384602F017F9BEE728462146FFF7F2FDA1
:10404000304643E70646B6E70126B4E7036814495D
:104050005B680422984733466168E8680A2202F0E8
:1040600011F9EF6811493B6838465B680C229847A4
:10407000384602F0F7F856E78DF819200223FA18AF
:10408000224406A9927BCA540133082BF7D1063784
:1040900081E700BF3C99FF1F932449923899FF1F85
:1040A0004CB0000064B0000070B0000054B00000DC
:1040B000836B934201DDFFF7D9BE0020704700BF3C
:1040C000F0B5FF29BFB00D460446164606D0002EB7
:1040D00002DBA36B9E4205DB3FB0F0BD531CF6D163
:1040E0000026F6E706EB460304EBC30301A893F8AA
:1040F0002810334FFEF726FF01A84FF4F7318DF853
:104100000D50FEF735FF0623002101A88DF804307D
:104110004FF46A45FEF7C8FF4FF4684102E02946B4
:1041200057F8045F01A8FEF797FF002DF7D1E36D64
:1041300053B1196841B1042501A8FEF78DFFE36D65
:10414000595904350029F7D1A36BB34232DC01A8D9
:10415000FEF734FF4FF4F73101A8FEF709FF012104
:1041600001A8FEF7A1FF4FF46A454FF4684101A88A
:10417000144FFEF771FF3DB1294657F8045F01A8BF
:10418000FEF76AFF002DF7D1236E53B1196841B1D4
:10419000042501A8FEF760FF236E59590435002954
:1041A000F7D1A36BB34297DD324601A92046FFF752
:1041B0005DFE91E7324601A92046FFF757FEC6E7AC
:1041C000D0AF0000ECAF0000F8B50E460446394908
:1041D000FEF7CEFE06232370B6F900102046FEF748
:1041E0002DFFB6F902102046FEF728FFF71C002528
:1041F00004E00135FEF758FF202D0CD017F8013FE1
:1042000020461946002BF4D1013500212046FEF747
:104210004BFF202DF8D106F12407002504E00135DD
:10422000FEF742FF202D0CD017F8013F204619461B
:10423000002BF4D1013500212046FEF735FF202D5B
:10424000F8D106F14507002504E00135FEF72CFF03
:10425000202D0CD017F8013F20461946002BF4D131
:10426000013500212046FEF71FFF202DF8D106F171
:104270006607002504E00135FEF716FF202D0CD05F
:1042800017F8013F20461946002BF4D101350021D3
:104290002046FEF709FF202DF8D196F88810204619
:1042A000FEF702FF96F889102046BDE8F840FEF7B9
:1042B000FBBE00BF14F001000B682DE9F0470F466C
:1042C0000546002B00F081801E78002E00F08D80C6
:1042D000002613F8012F0136002AFAD1D92EA8BFE3
:1042E000D92606F1020A5FFA8AFA7B68002B72D09F
:1042F0001A78002A75D04FF0000913F8012F09F140
:104300000109002AF9D1BB68002B68D01A78002A6D
:1043100069D04FF0000813F8012F08F10108002AB6
:10432000F9D109EB0603D92BC8BFD92308EB030247
:10433000C8BFC6F1D9092E49D92A2846C8BFC3F13A
:10434000D908FEF715FE062309F102012B70C9B248
:104350002846FEF7A9FE01212846FEF7A5FE002407
:10436000B9F1000F07D07B682846195D0134FEF7CC
:104370009BFEA145F7D108F10201C9B22846FEF71C
:1043800093FE01212846FEF78FFEB8F1000F08DDED
:104390000024BB682846195D0134FEF785FEA04560
:1043A000F7D151462846FEF77FFE01212846FEF749
:1043B0007BFE46B100243B682846195D0134FEF7B8
:1043C00073FEB442F7D1BDE8F0871E467B684FF01C
:1043D000020A002B8CD19946BB68002B96D19846D7
:1043E0009FE791468FE790469BE74FF0020A7CE7F4
:1043F00016F001002DE9704F856B0B7A002D82B00D
:1044000004DD90F828409C42064602D002B0BDE888
:10441000708FD0E90889D1E904ABD94508BFD045F0
:104420003FD3CB4508BFC24535D00022FF2B02D079
:10443000013386F828304ABB32460123012B0ED0C7
:10444000AB4292F8281096F8284002F1180203F1C6
:10445000010309DA8C42F1D123460122E6E7012D5E
:1044600004DD18320223EBE78C42F5D00123002251
:1044700033767261FF213046FFF706FC0C4B1B6858
:104480000193019B736102B0BDE8708F96F82840DC
:1044900001222346CAE796F82420013286F8242018
:1044A000C3E70022FF21FFF7EFFB02B0BDE8708FEA
:1044B0003C99FF1FF8B504460F464FF46841164675
:1044C0001D46FEF755FD0623237039462046FEF7AC
:1044D000EBFD31462046FEF7E7FD2046FF21FEF7C3
:1044E000E3FD2046FF21FEF7DFFD2046FF21FEF71A
:1044F000DBFDE9B22046FEF7D7FDC5F307212046D4
:10450000FEF7D2FDC5F307412046BDE8F840FEF7AF
:10451000CBBD00BF2DE9F04F83B004468B461C494C
:1045200001929A46DDF83090DDF834800E9F9DF8B8
:104530003C609DF84050FEF71BFD062323700FFAE8
:104540008BF12046FEF77AFD019A204611B2FEF764
:1045500075FD514620462022FEF7ACFD4946204617
:104560002022FEF7A7FD414620462022FEF7A2FDAD
:10457000394620462022FEF79DFD31462046FEF7B3
:1045800093FD2946204603B0BDE8F04FFEF78CBDF1
:1045900014F0010070B501EB410300EBC3030446C6
:1045A000C4B00D4607A893F82810FEF7CBFCE36BC8
:1045B000226C934210D0194607A8FFF705FEA36BA3
:1045C0009D4202DB002044B070BD2A4607A9204668
:1045D000FFF74CFC44B070BD93F889005A881988E5
:1045E000049093F88800039003F1670003F14606F6
:1045F000029003F125008DE84100043307A8FFF77E
:1046000089FFDCE72DE9F04F044683B015469A4652
:104610000E46002900F08280084605F0D1FF5028A0
:10462000A8BF502000F102095FFA89F38046019388
:10463000002D78D0284605F0C3FF5028A8BF502091
:1046400000F1020B81465FFA8BFBBAF1000F52D0EA
:10465000504605F0B5FF5028A8BF502008EB0902CE
:104660001118D929074647DD36492046C2F1D90736
:10467000FEF77EFC0622594622702046FEF714FD06
:1046800001212046FEF710FDB9F1000F4FDD05EBCB
:10469000090B15F8011B2046FEF706FDAB45F8D1C6
:1046A000B91CC9B22046FEF7FFFC01212046FEF7E7
:1046B000FBFC002F08DD5546574415F8011B20462A
:1046C000FEF7F2FCAF42F8D101992046FEF7ECFC70
:1046D00001212046FEF7E8FCB8F1000F08DD354661
:1046E000B04415F8011B2046FEF7DEFC4545F8D125
:1046F00003B0BDE8F08F574612492046FEF738FC5C
:104700000622594622702046FEF7CEFC01212046A3
:10471000FEF7CAFCB9F1000FB9DCC1E7022301932F
:104720008846002D86D14FF0020BA9468DE7B91CB3
:104730002046C9B2FEF7B8FC01212046FEF7B4FCC2
:10474000B9E700BF16F0010030B501EB410300EB03
:10475000C303BFB004460D4601A893F82810FEF726
:10476000F1FBA16C49B10EC901A8FFF74BFFA36B88
:104770009D420ADB00203FB030BD616C61B101A8F1
:10478000FFF79AFDA36B9D42F4DA2A4601A9204661
:10479000FFF76CFB3FB030BD034BFF22012101A8A6
:1047A000FFF788FEE3E700BF16F00100F0B5B2F5B1
:1047B000F73FC1B00E465ED01446054634D93E4A96
:1047C00094421AD00232944237D15C00E21800EBD6
:1047D000C202497A92F8282091425FD0374A234496
:1047E00005EBC3031268039293F82800039A0A2189
:1047F00011FB00221A6341B0F0BD5C00E21800EB2F
:10480000C202497A92F8282091423AD02B4A234496
:1048100005EBC3051368029395F82820029B03EB70
:10482000C203EB6241B0F0BDB2F56E4F05D11A463E
:10483000097AFFF729FA41B0F0BDEF6F2FB11A46A0
:10484000317A2046B8470028F5D10F2103A8FEF79A
:1048500079FB2346FF2203A80121FFF72BFEAB6B58
:10486000327A8DF81520002BE5DD03A928460022B9
:10487000FFF7FCFADFE71A46097AFFF721FC41B09F
:10488000F0BD002BC2DB826B9342BFDA1946019365
:10489000FFF780FE019B0028CDD1B7E7002B9DDB01
:1048A000826B93429ADA19460193FFF74DFF019B01
:1048B0000028C0D192E700BF14F001003C99FF1F0F
:1048C0002DE9F041856B4A7A002D03DD90F8283000
:1048D00093422BD0FF2A19D14FF0FF33CC68033C11
:1048E000052C1AD90027FF2A12D1002D0EDD0E4605
:1048F0000546002423463A4631462846FFF756FF30
:10490000AB6B0134A342F5DCBDE8F081BDE8F0817A
:104910003A46BDE8F041FFF749BF4C7C8F7C0E7CE6
:10492000240244EA074444EA0607DCE70023D5E70B
:1049300070B54679F21E012A1AD9C1EB8111426E77
:104940008C00111991F8F62092B183689B070546F7
:1049500012D47EB1696E21444B68B3F56A4F0FD013
:10496000B3F56E4F06D12846FFF744FD012070BD18
:10497000002070BD012070BDFFF754F96E79E8E7A3
:104980002846FFF79DFF012070BD00BF836B002B01
:104990003CDD2DE9F041002582B00646DFF870804D
:1049A0002F46044604E001359D4204F118042ADA3A
:1049B000E26A72B1D8F80010009100998A4208D2D8
:1049C000002D06DB29463046FFF7E4FDB36B00B14E
:1049D000E762226B002AE6D0D8F800100191019915
:1049E0008A42E0D2002DDEDBAB42DCDD29463046D8
:1049F000FFF7AAFEB36B0028D5D001359D4227638F
:104A000004F11804D4DB02B0BDE8F081704700BFA8
:104A10003C99FF1F2DE9F04184B000238DF803304D
:104A20000446FFF769F908B1277917B104B0BDE86A
:104A3000F0812046FEF7CCFE2046FFF7A7FF1426A4
:104A40004FF00108226802AB956801A90DF103023D
:104A50002046A84702AB0028E8D001999DF8032022
:104A60002046FEF7ADFF051E2946204613DBFFF763
:104A70005FFFC5EB851398B19D00A36F13B1606E06
:104A800028449847636E2B44184683F8F58083F8D2
:104A9000F670FEF793FA013ED4D104B0BDE8F08180
:104AA000616EC5EB8515AD0029442046FFF7E2F89D
:104AB000E3E700BF30B585B001248DF805200091F3
:104AC0008DF804406AB1013A1A44591E0DF10704E9
:104AD000073311F8015F04F8015F914201D0994258
:104AE000F7D16946D0F88C00FCF7E6FEA0F1010092
:104AF000B0FA80F0400905B030BD00BF08B5D0F86D
:104B00008C100846FCF7FEFD012008BDF0B50646F6
:104B100085B0D0F88C000F4615461C46FCF752FEB7
:104B200000281BDDD6F88C006946FCF753FE9DF883
:104B30000530009A3A602B706BB1631E0DF10700CF
:104B4000002110F8014F03F8014F2C7801318C42FD
:104B500001DD0829F5D1012005B0F0BD002005B028
:104B6000F0BD00BF70B504460E46FEF769FD074B69
:104B70002360082001F070FB05490546FCF73EFD67
:104B8000A4F89060C4F88C50204670BDA8B1000015
:104B900090D00300844641EA000313F003036DD173
:104BA000403A41D351F8043B40F8043B51F8043BF0
:104BB00040F8043B51F8043B40F8043B51F8043BF7
:104BC00040F8043B51F8043B40F8043B51F8043BE7
:104BD00040F8043B51F8043B40F8043B51F8043BD7
:104BE00040F8043B51F8043B40F8043B51F8043BC7
:104BF00040F8043B51F8043B40F8043B51F8043BB7
:104C000040F8043B51F8043B40F8043B51F8043BA6
:104C100040F8043B51F8043B40F8043B51F8043B96
:104C200040F8043B403ABDD2303211D351F8043B36
:104C300040F8043B51F8043B40F8043B51F8043B76
:104C400040F8043B51F8043B40F8043B103AEDD2E5
:104C50000C3205D351F8043B40F8043B043AF9D236
:104C6000043208D0D2071CBF11F8013B00F8013B09
:104C700001D30B8803806046704700BF082A13D316
:104C80008B078DD010F003038AD0C3F10403D21A2E
:104C9000DB071CBF11F8013B00F8013B80D331F862
:104CA000023B20F8023B7BE7043AD9D3013A11F8E2
:104CB000013B00F8013BF9D20B7803704B7843704D
:104CC0008B78837060467047F0B51B4B1B4E59685C
:104CD00018689A68DB6885B06C460FC4337899070A
:104CE0001DD5174A174C1378174913F0700318BFD6
:104CF0001370164A164B80271770002633200322A4
:104D000026706D4608701A7072B6043C45F00105B5
:104D10002046A84762B6237813F0700309D10D4BE3
:104D2000064901E0013B02D00A78D207FAD505B066
:104D3000F0BD237005B0F0BDB4B100000100024029
:104D400000000240040002400B0002400700024045
:104D50000A000240410D0300B0F5006F0AD210B501
:104D6000094B1B78DB07044606D504F1A0500078F8
:104D7000C0B210BD00207047FFF7A6FF04F1A0509D
:104D80000078C0B210BD00BF01000240B1F5006F55
:104D900060D2F0B5374B1B78DB0785B00C465AD58F
:104DA000B2F5006F03D28B18B3F5006F5ED3C1F577
:104DB0000062314D2F4B14F0030118D002292DD081
:104DC00004F1A056077831788F4200F1010008D035
:104DD000297811F0700118BF297037701978C90748
:104DE000FCD5013A0134002AE5D105B0F0BD032A13
:104DF00014D904F1A05650F8047B31688F4208D0D2
:104E0000297811F0700118BF297037601978CF0721
:104E1000FCD5043A0434002ACDD1E6E7012ACFD0EC
:104E200004F1A05790F801E001783E8841EA0E2194
:104E30008E4200F1020008D02E7816F0700618BFDE
:104E40002E7039801978CE07FCD5023A0234002A38
:104E5000B1D1CAE77047039202910190FFF734FF86
:104E600001A807C8B2F5006F9DD3A0E7002AA0D122
:104E7000BBE700BF0100024000000240024A136885
:104E800001331360704700BF3C99FF1F08B5104CF9
:104E900008E0236859050DD423681A050FD4236848
:104EA000DB0411D423685803F3D500F03DFB2368DD
:104EB0005905F1D501F010FF23681A05EFD502F06E
:104EC000ADFA2368DB04EDD502F060FDEAE700BF30
:104ED0003480044008B5FFF7D9FF00BF014B102212
:104EE0001A80704700200540704700BF094908B587
:104EF0000B6830B16A461844A2F58052904202D243
:104F00000860184608BD05F041F80C2303604FF017
:104F1000FF3008BD048DFF1FFEE700BFEFF31380D5
:104F200070B9EFF310836BB9EFF305825AB94FF400
:104F30008070EFF311832BB1984228BF1846704759
:104F40004FF0FF3070470F2A01D81846F1E7014BA8
:104F5000D05CEEE7F0E300E0704700BF10B40F4B09
:104F600053F8302092F880422CB1012369B182F8C5
:104F7000803010BC704703EBC0035B681A6841B90E
:104F800022F002021A6010BC704782F8003110BC97
:104F9000704742F003021A6010BC7047C4B10000B1
:104FA0001C4A02EBC00301295B6811D004291BD005
:104FB00052F83000002280F8802229B1022920D046
:104FC000032922D01A6070474FF480721A6070472C
:104FD00052F830004FF4A27280F880121A601A68FA
:104FE00022F020021A60704752F830104FF4A2727B
:104FF000012081F880021A601A6842F020021A60CB
:10500000704740F203121A6070474FF481721A60C1
:10501000704700BFC4B10000212817D8F8B5042A92
:1050200013D8DFE802F0494C4F1446002C4872B602
:10503000236823F4702343F08072C4F38401164381
:10504000236040F82150266062B6F8BD70474FF4E7
:105050001026244B03EBC0030D465C68216811F455
:10506000E06134D0204B214A2149C3F89C2104F14E
:1050700040422048C3F8A411A2F592211E4FC3F864
:10508000A0017C291D48C3F8A871C3F8AC01CDD993
:10509000A2F594237C2B18D9A2F596237C2B19D941
:1050A000A2F598237C2B17D9A2F59A227C2A15D930
:1050B000F8BD4FF43026CCE74FF40026C9E74FF493
:1050C0004026C6E74FF42026C3E70D48AFE7FFF7B9
:1050D00067FFC7E70B48AAE70B48A8E70B48A6E716
:1050E000088DFF1FC4B100000082FF1FD187FF1F82
:1050F0007987FF1FA587FF1F4D87FF1F2187FF1F90
:10510000408DFF1F908DFF1FC08DFF1FE08DFF1F83
:105110001A4B03EBC00010B4426802F14043A3F500
:1051200092217C2905D9A3F594217C2913D814490F
:1051300000E0144972B61368134C23F08773C2F36E
:10514000840023F4803343F08073136041F82040DF
:1051500062B610BC7047A3F596217C2909D9A3F546
:1051600098217C2907D9A3F59A237C2BF1D80749EC
:10517000E0E70749DEE70749DCE700BFC4B100000C
:10518000408DFF1F088DFF1F594F0000E08DFF1F4E
:10519000908DFF1FC08DFF1F30B4054B054D064C91
:1051A000002210211A602A602060196030BC70470C
:1051B00014D0034004D0034000D00340212801D87C
:1051C000FFF7CCBE704700BF212806D8044B53F828
:1051D000303093F80002C0B270470020704700BF23
:1051E000C4B10000212801D8FFF7DABE704700BF24
:1051F00072B60D490D4B0E4A1B680868126862B6FC
:10520000520102D5322B88BF01300A49C3F58C33D5
:105210004FF47A7203F23F13A1FB031302FB00F079
:1052200000EB1310704700BF3C99FF1F18E000E02F
:1052300004ED00E0398EE3382DE9F843054672B6F7
:10524000214F224B224A1B683C68126862B6520109
:1052500002D5322B88BF0134A5B3C3F58C331D4E64
:10526000DFF86890DFF8688003F23F134FF47A723A
:10527000A6FB031302FB04F404EB131472B6D9F873
:1052800000103A68D8F800E062B6C1F58C3303F23A
:105290003F13A6FB03031EF0806FC4EB13134FF400
:1052A0007A7002D0322988BF013200FB0233B3F595
:1052B0007A7F04D3013D05D004F57A74DEE701F06E
:1052C00025F9DBE7BDE8F8833C99FF1F18E000E013
:1052D00004ED00E0398EE338F8B52D4B2D49DFF8A9
:1052E000D0E0DFF8D0C02C4E2C4D2D4C2D4A2E4F47
:1052F0004FF4000018604FF0807018604FF000709D
:1053000018604FF0806018604FF000601860002057
:105310000860282348F6FF71CCF80010CEF8003062
:10532000336013602B6023603B60B3629362092299
:1053300045F8242CC4F8D80F05F57F65C7F8D41FAD
:1053400007F5FF2707F5FA67C6F8F83F2B6006F563
:10535000FF26C4F8D42F05F5FD2504F5FF24386099
:1053600006F2F4761148316005F5FF6504F5FD6439
:105370002B602360026001F0F7F83220FFF75CFF3A
:1053800000F0FCFC4FF4AF70BDE8F840FFF754BFED
:1053900008E100E0048003401480034024800340BF
:1053A0002C8003401C8003403480034000800B406D
:1053B0000C80034008800340431E032B14D872B6B0
:1053C0000A4951F8230068B170B4094C058834F8D3
:1053D0001320466841F82360521B24F8132062B65C
:1053E00070BC704762B67047002070479899FF1FE5
:1053F000449CFF1F013803280BD872B6074B53F8A3
:10540000203043B100205B680130002BFBD162B635
:105410007047002070471846F9E700BFEC99FF1F5E
:10542000F0B472B61A491B4E012311F8014B194F03
:105430009A00240742F0010505D556F8324064B1C0
:1054400056F83520BAB10133052BEED162B6124BB6
:1054500000221A70F0BC00F00DBD0F4C0F4D2178EA
:1054600047F8325007EB431308304A1E5860227049
:1054700062B6F0BC70470849094B0A7847F83530E6
:1054800007EBC5030830013A58600A7062B6F0E7CE
:1054900008B300000080FF1F159AFF1F880040001E
:1054A000C8004000431E032B1DD81B4A400140F09A
:1054B000100030B4104472B6184CE25C032A1BD8BA
:1054C000DFE802F00212151703220D88E25410F0F3
:1054D000080F14BFC823882343EA0543083103603B
:1054E000416062B630BC704708300222EDE7052209
:1054F000EBE708300422E8E7094A52F8230038B104
:10550000084A52F82300416042F8231062B6E9E7E6
:1055100042F82310034AF7E70080FF1F249AFF1F79
:10552000EC99FF1FFC99FF1F2DE9F04FDFF800A356
:10553000DFF800B387B044E0A84F4FEA930807EBC9
:10554000C809013ED9F8042003F00803F6B2A2F11D
:10555000080003F0FF04002B40F0FC8057F83830BF
:105560001B0C99B222F8081C002B00F0EA809C4B1F
:1055700022F8064C42F8044C53F82620002A00F08A
:105580002982984D55F826305860974C45F82600EA
:1055900034F81630194424F8161000F04BFC00289B
:1055A00000F01182914A924B19F0080F00F10800A7
:1055B00018BF1346C9F8040047F8383008238AF8A2
:1055C00000309AF80040E4B260071AD5894B1B7886
:1055D000A3B189490A7802F0FF0322B1013BDBB293
:1055E0000B7003B900BE85490A7802F0FF032AB1A7
:1055F000013BDBB20B70002B00F0BB8104238AF867
:10560000003004F0080303F0FF02002B00F0C68016
:105610009BF80030DBB21E098ED19C086F4F57F803
:10562000342007EBC401C2F38302013A49680C2A13
:1056300000F28380DFE802F07777818181818181C8
:1056400040818181070008686D4B6E4D0193674B67
:105650004A686D4E47F8343081B240F28164684B3D
:105660006A60286000220120A1421A603A61BA6192
:10567000307000F2E180B1F5D06F80F02582B1F595
:10568000817F00F0DE8100F2C181802900F0348248
:10569000822940F0DC81A9885C4B042900F2D88182
:1056A0005B4C89000B44227062701A78930740F1BA
:1056B00022832070022023E2514B01931A683AB3EF
:1056C000544B514E5449188834780D7840288646FA
:1056D00045F0020828BF4FF0400E002C84F0010472
:1056E0003470CEEB00000CBF8824C82407EBC8063A
:1056F00080B285F0010544EA0E447260188047F8D4
:10570000384072440D70002800F0B780019B1A6089
:105710003C4B1A88B2F5A06F0FD100219A785970CE
:105720003E4B1A7009E0374A108842F2210290423B
:1057300000F0A8802D4A47F83420394A012313701D
:105740003CE72A4A2A4B19F0080F18BF134647F8BE
:10575000383033E700F08EFB324A334952F82630B6
:10576000002B00F03B8158688C5D42F8260003F165
:105770000802C9F80420032C05D8DFE804F02C0245
:10578000292602228A551A8819F0080F0CBF88238F
:10579000C82343EA024347F838300FE7E00700F137
:1057A000EB80210600F12881A20706D51F4A204977
:1057B00013780220DBB213700870E30602D51C4B8D
:1057C00010221A7007B0BDE8F08F04228A55DAE77C
:1057D00005228A55D7E703228A55D4E70080FF1FA8
:1057E0009899FF1F4499FF1F449CFF1FC800400069
:1057F00088004000209AFF1FA999FF1F289AFF1FC9
:105800004099FF1F0C9AFF1FA899FF1FC020074057
:10581000189AFF1F5499FF1F149AFF1F98200740E2
:1058200094200740EC99FF1F249AFF1F882007400F
:10583000802007409020074042F22104A14200F05E
:10584000948043D8B1F5086F00F0A881B1F5106FCE
:1058500040F0FD80B84AB94CA978117004F1800578
:1058600003E00834AC4200F09E81236A1906F8D5A3
:10587000606A083800F0FEFAF3E7BEF1400F18BF87
:10588000002243E7AE4ACD1D11F8013B02F8013F6B
:10589000A942F9D1AB4A1268862A00F01181AA49BF
:1058A000AA4E0A78307882F00105002842F0020200
:1058B0000D700CBF8821C82147F8321007EBC202D7
:1058C00080F0010000213070516033E742F2212462
:1058D000A14240F0FE81DFF8BCC29D4B9D49AC78EF
:1058E000DCF800501D6081460C700020029080465C
:1058F0008446044694490D7845F0020E07EBCE032A
:10590000B9F1000F5C600CBF8824C82444EA080386
:1059100085F0010447F83E3032700C70DFF81CE26D
:105920008A4BDFF82482002840F09880BCF1400FB9
:105930001BD144F0020407EBC403029FDFF8FCE133
:105940005F60002A40F09F80020442F08802074412
:105950004EF8342086F800900D703B46402804D164
:1059600000207D4A019910800B607C4A012313704E
:10597000E3E600F0C7FB41E6704B784872491A61D4
:105980004FF0020E80F800E0754F0A7075491960FB
:105990009960754E754D764C9A610D213970FF21D5
:1059A0003170DFF8F4E129702270724D724A8EF87E
:1059B00000109F27012406F8047C5D600470DA6003
:1059C00007B0BDE8F08F6D4A47F83800137801330F
:1059D0001370F3E543F82600694DD6E58B5D032B84
:1059E00067D801A252F823F0BD550000BD55000054
:1059F0003D5A0000375A000059495C4B80220D2067
:105A000008701A70A2077FF5D8AECFE640F20232D6
:105A1000914240F05681A98801F07F01042916D8EF
:105A20006A88A2B94E4C89000C448146217841F025
:105A30000201217059E701238B55BFE500238B55E7
:105A4000BCE5A98801F07F01042940F24781444B5D
:105A50000F221A70414A012313706EE640287FF628
:105A600068AF44F002040EEBC401029E4E60AAB17E
:105A7000444A83F800903346403888F80050403359
:105A80004EF834206DE70204029B86F8009042F045
:105A9000C8020D7003444EF834205FE783F800908D
:105AA000029B304A88F80050403840334EF834208A
:105AB00057E719F0080F0CBF022303238B557DE530
:105AC000314A0F211170EAE6304A5468002CBED0EA
:105AD0006888B5F804E003E00C325468002CB6D0B6
