:1000000000800020BD010000A55000005D500000F0
:100010005D5000005D5000005D5000005D5000002C
:100020005D5000005D5000005D500000A5500000D4
:10003000A55000005D500000A55000004D5000008C
:10004000A5500000A5500000A5500000A5500000DC
:10005000A5500000A5500000A5500000A5500000CC
:10006000A5500000A5500000A5500000A5500000BC
:10007000A5500000A5500000A5500000A5500000AC
:10008000A5500000A5500000A5500000A55000009C
:10009000A5500000A5500000A5500000A55000008C
:1000A0003D2D0000492D0000A5500000A550000086
:1000B000A5500000A5500000A5500000A55000006C
:1000C000A5500000A5500000A5500000A55000005C
:1000D000A5500000A5500000A5500000A55000004C
:1000E000A5500000A5500000A5500000A55000003C
:1000F000A5500000D16E0000A5500000157600004C
:10010000A5500000857B0000A5500000A550000010
:10011000A5500000A5500000A5500000A55000000B
:10012000A5500000A5500000A5500000A5500000FB
:10013000A5500000A5500000A5500000A5500000EB
:10014000A5500000A5500000A5500000A5500000DB
:10015000A5500000A5500000A5500000A5500000CB
:10016000A5500000F9560000A5500000A550000061
:10017000A5500000A5500000A5500000A5500000AB
:10018000A5500000A5500000A5500000A55000009B
:10019000A5500000A5500000A5500000A55000008B
:1001A000A5500000A5500000A5500000A55000007B
:1001B000A5500000A5500000A5500000564B4CF281
:1001C000205210B51A804DF628121A8000BF00BFC9
:1001D00004F06CFF514B4FF010621A60504A9A6065
:1001E000504ADA60504A136813F4807304D14F49BF
:1001F0000B604FF4A85313604D4B1A78110703D5C9
:100200001A7842F008021A704A4B4B492A221A7097
:100210004A4A4B4B8B4204D252F8040F43F8040B6A
:10022000F8E7484B484900228B4202D243F8042B9E
:10023000FAE74649464A002352F8230041F82300D2
:1002400001336F2BF8D1434B434A802103F8011B44
:100250009342FBD1414B3D4A1A60414B8A221A70AE
:10026000A3F5805324225A70A0221A709A7992071B
:10027000FCD59A79D406FCD43A4A937903F00C035E
:10028000082B384BF9D105221A7143225A719A79F9
:100290009006FCD5334A9179324B4906FBD5324A58
:1002A0004FF0817111600521516020221A709A79F6
:1002B00002F00C020C2AFAD12C4B2D4A1A602D4B5D
:1002C0002D4A1A6000225A60072243F8042C2B4A58
:1002D000C3F80C2D62B605F0E7F8144B1B68DA077B
:1002E00005D5274805F040F8264B274A1A60274BCA
:1002F0001B785B0609D5234C234B22689A4204D114
:100300001F4805F031F80023236009F091FF04F045
:10031000D3FE06F081F8FEE70E2005403080044051
:10032000823F04000100002B10D0034014D0034092
:1003300002D0074000E007404898FF1FA8F10000E6
:100340002087FF1F4898FF1FC09DFF1F0082FF1FCF
:100350000000000000E400E05FE400E008ED00E0E1
:1003600000500640004006404480044004800440A1
:10037000C010050014E000E03F190100000020203B
:100380005A7568041CE00340A5C3945A00F0074066
:10039000FFFFFFFFFFFFFFFFFFFFFFFFFFFFFFFF6D
:1003A000FFFFFFFFFFFFFFFFFFFFFFFFFFFFFFFF5D
:1003B000FFFFFFFFFFFFFFFFFFFFFFFFFFFFFFFF4D
:1003C000FFFFFFFFFFFFFFFFFFFFFFFFFFFFFFFF3D
:1003D000FFFFFFFFFFFFFFFFFFFFFFFFFFFFFFFF2D
:1003E000FFFFFFFFFFFFFFFFFFFFFFFFFFFFFFFF1D
:1003F000FFFFFFFFFFFFFFFFFFFFFFFFFFFFFFFF0D
:10040000FFFFFFFFFFFFFFFFFFFFFFFFDEF9FFFF23
:1004100010B5054C237833B9044B13B10448AFF33E
:1004200000800123237010BD4898FF1F00000000CA
:10043000A4F10000084B10B51BB108490848AFF300
:1004400000800848036803B910BD074B002BFBD0A0
:10045000BDE81040184700BF000000004C98FF1F87
:10046000A4F100004898FF1F00000000FFFFFFFFFD
:100470002DE9F04FDFF828A1434CDAF80030256869
:1004800083B04FF000080193019E4FF000094246EF
:100490004B46751B0F46064609F00CFB002840D062
:1004A0003A4BDFF800B1186809F020F802460B4615
:1004B0003046394607F000FE80468946284609F056
:1004C00003F842464B4609F065F82DA3D3E9002313
:1004D00009F08AF98046DBF800002D4D894609F0C5
:1004E00005F802460B464046494608F0A1FE09F0D1
:1004F00049FB284BCBF80000186808F0F7FF32469C
:100500003B4609F071F90022234B09F043F8C5E995
:100510000001DAF800300093009B236003B0BDE8CF
:10052000F08F1E4BDFF880B0186808F0DFFF32460E
:100530003B4609F02FF8064628460F4608F0C4FF50
:1005400002460B463046394609F024F80CA3D3E99D
:10055000002309F049F90646DBF800000F4608F0D1
:10056000C5FF0B4602463946304608F061FE09F0E9
:1005700009FB074BCBF80000C3E90089C9E700BFBE
:100580000000000040774B41B099FF1F0888FF1F13
:100590006898FF1FDC99FF1F00004E403088FF1F46
:1005A000A09AFF1F189AFF1FC099FF1F70B5094C32
:1005B000094E0A4D204601F087F808F097FFC6E97A
:1005C0000001204601F074F808F090FFC5E9000131
:1005D00070BD00BF509AFF1F109AFF1F0099FF1FA8
:1005E00070B508F0D7FF09F0CDFA184B002118605C
:1005F000054609F0CDFDF0B9154B164893F850307B
:10060000154CA0FB0330400909F0C6FB134B06460E
:100610001968284609F014FC0146304609F010FC20
:10062000216809F005FB20600025294609F0A6FD98
:1006300000B1256070BD094B074C1968284609F0C8
:10064000FFFB216809F0F4FA2060EDE7BC99FF1F79
:100650008098FF1F1F85EB51DC99FF1F0088FF1F4B
:1006600030B51DA3D3E9002383B004460D4609F03D
:1006700021FA38B11AA3D3E900232046294609F00C
:10068000FBF9E8B9002200232046294609F0F4F9D5
:10069000D0B9204629460022002309F00BFAB8B150
:1006A000114A02231360114A1168994206D010487A
:1006B00010490068019001981360086003B030BDD4
:1006C000094A01231360EEE7074A03231360EAE7B0
:1006D000054B1B68E7E700BF000000A09999B9BF70
:1006E000000000A09999B93FB499FF1FD099FF1F4E
:1006F000A09AFF1FE499FF1F2DE9F047042182B063
:10070000BD48BE4EBE4DDFF89893DFF898A3DFF8E2
:100710009883BC4F05F022FDBB4BBC4819780A22D8
:10072000002305F0ADFEB94805F084FE0421B84869
:1007300005F014FD00230A2296F82010B34805F0B6
:100740009FFEB24805F076FE0521B24805F006FD91
:1007500000230A2296F82110AC4805F091FEAB4820
:10076000022405F067FE0321AB4805F0F7FCD5E94C
:1007700000230094A54805F0CBFEA44805F05AFEDE
:100780000321A64805F0EAFCA54B0094D3E9002319
:100790009E4805F0BDFE9D4805F04CFE0321A14892
:1007A00005F0DCFCD9E900239848009405F0B0FE80
:1007B000964805F03FFE04219B4805F0CFFC9B4B7B
:1007C0000094D3E90023914805F0A2FE8F4805F07C
:1007D00031FE0321964805F0C1FCD9E90023D5E993
:1007E000000108F0D7FE009402460B46874805F04A
:1007F0008FFE864805F01EFE04218E4805F0AEFCF3
:100800008D4B0094D3E90023804805F081FE7F489A
:1008100005F010FE0421894805F0A0FC884B7B48B8
:10082000196805F06DFE794805F004FE042185483D
:1008300005F094FC844B186808F058FE00940246BA
:100840000B46724805F064FE704805F0F3FD072181
:100850007E4805F083FC7E4B186808F047FE4FF099
:10086000080902460B46CDF80090684805F050FE96
:10087000664805F0DFFD0921764805F06FFC764BF0
:10088000186808F033FECDF8009002460B465F482A
:1008900005F03EFE5D4805F0CDFD06216F4805F0F0
:1008A0005DFC6F4B186808F021FE009402460B4671
:1008B000564805F02DFE554805F0BCFD0921694854
:1008C00005F04CFC684B186808F010FE00940246D6
:1008D0000B464E4805F01CFE4C4805F0ABFD0B21C5
:1008E000624805F03BFC624B186808F0FFFD00947D
:1008F00002460B46454805F00BFE444805F09AFDBC
:1009000010215C4805F02AFCDAE9002300943F48F6
:1009100005F0FEFD0121584805F020FC3B4805F09C
:1009200089FD0A21554805F019FCD8F8000008F0A7
:10093000DDFD4FF0040902460B46CDF80090334828
:1009400005F0E6FD49464E4805F008FC2F4805F045
:1009500071FD10214B4805F001FCD7E90001002290
:10096000494B08F017FE4FF0000ECDF800E00246AC
:100970000B46264805F0CCFD2146444805F0EEFB29
:10098000D7E900232148009405F0C2FD21464048E4
:1009900005F0E4FBD7E9000100223B4B08F024FFFF
:1009A000012702460B460097184805F0B1FD214685
:1009B000384805F0D3FB154805F03CFDD8F8000099
:1009C00008F094FD804696F82000894608F07CFDEA
:1009D000D5E9002308F0DEFD02460B4640464946B5
:1009E00009F04AF8002840F0888008212A4805F0DC
:1009F000B5FB2A4B1B6859E0A4E400008098FF1F58
:100A0000109AFF1F6898FF1F2888FF1FA09BFF1FD9
:100A1000ACE40000B4E40000BCE40000C0E400006A
:100A2000F898FF1FC4E40000C8E40000489AFF1FC4
:100A3000D0E40000D4E400000899FF1FDCE40000CB
:100A40007498FF1FE4E40000BC99FF1FECE4000071
:100A5000189AFF1FF4E40000C099FF1F00E5000092
:100A60001C9AFF1F08E500001099FF1F14E5000005
:100A70000488FF1F20E5000034E5000038E5000091
:100A800044E500004CE5000000004E4060E5000039
:100A900064E5000068E500006CE50000B499FF1F04
:100AA0000099FF1FC899FF1FDC99FF1F062B0CD868
:100AB000DFE803F04149515904613900042132480B
:100AC00005F04CFB314805F0B5FC304805F0B2FCB0
:100AD0002F4800F005FEF0B92D4800F009FE10B9CE
:100AE00002B0BDE8F08705212A4805F037FB27480A
:100AF00002B0BDE8F04705F09DBCDAE9002300979D
:100B0000224805F005FD3946234805F027FB1F481C
:100B100005F090FC69E70821204805F01FFB1B4801
:100B200005F088FCD8E705211D4805F017FB17489C
:100B300005F080FCC9E707211A4805F00FFB1348B0
:100B400005F078FCC1E70621174805F007FB0F48C0
:100B500005F070FCB9E70821144805F0FFFA0B48CE
:100B600005F068FCB1E70421114805F0F7FA0748E1
:100B700005F060FCA9E706210E4805F0EFFA0348EE
:100B800005F058FCA1E700BF9CE50000A09BFF1FFB
:100B9000509AFF1FC0E5000034E50000B4E50000F6
:100BA000ACE5000078E5000080E5000088E5000085
:100BB00094E50000A4E5000070B5284D284C95F898
:100BC00020202849204605F04DFCEA7F2649204692
:100BD00005F048FCAA7F2549204605F043FC95F81E
:100BE00050202349204605F03DFC2A7D214920461E
:100BF00005F038FCD5E9182320461F4905F032FCE2
:100C0000AA6E1E49204605F02DFCD5E91623204684
:100C10001B4905F027FCAA8B1A49204605F022FC47
:100C200005F10A022046184905F01CFC95F822201F
:100C30001649204605F016FCD5E912232046144932
:100C400005F010FCE86E08F051FC02460B46204609
:100C50001049BDE8704005F005BC00BF8098FF1F3B
:100C6000A09BFF1FC8E50000E0E50000F4E50000E0
:100C700008E6000024E6000038E6000054E6000024
:100C80006CE6000088E60000A0E60000ACE600008C
:100C9000C0E60000D8E6000030B51B4CC9B00BA878
:100CA0000F2102F037FAD4E9122394F95010089179
:100CB000D4E91001CDE9062308F01CFF43B294F8F3
:100CC0002000049308F0F0FB0DA3D3E9002308F003
:100CD00061FC94F82230E57FA27F0093CDE9020108
:100CE00000230BA80195012102F07AF90BA900223B
:100CF000064803F0C5FA49B030BD00BFAFF300802D
:100D0000000000000020AC408098FF1F1899FF1FD2
:100D100008B50421074805F021FA074805F08AFBC9
:100D2000FFF7BAFF0022FF210448BDE8084003F0A6
:100D300093B800BF38E70000A09BFF1F1899FF1F62
:100D40002DE9F041C4B04AAB0E4607A80F219046EA
:100D5000D3E9004502F0DEF9304608F0C7FB0D4B41
:100D600006461B78049340460F46CDE9024508F03D
:100D7000BDFB3246CDE900013B4607A8012102F048
:100D8000D7F807A90022044803F07AFA44B0BDE876
:100D9000F08100BF2888FF1F1899FF1FF0B5C5B06C
:100DA00014461D4606460F4607A80F2102F0B2F969
:100DB000CDE904450B4B38461D7808F085FB00242F
:100DC000CDE902012346294607A800960194012295
:100DD00002F056F8224607A9034803F051FA45B03D
:100DE000F0BD00BF2888FF1F1899FF1FFFFFFFFFFE
:100DF0002DE9F04F644C654A23688DB00893136861
:100E0000089932338B42C0F0EB80614A23680A9321
:100E100013680A995C4803F57A738B4205D35D48E1
:100E200003F0E0FE0DB0BDE8F08F03685A4E5B4D55
:100E30000B930B9B136029683068DFF894B1DFF8DF
:100E400094A108F0F3FE08F051FB554BD3E900895B
:100E5000CBE900014946404608F094FE514B306012
:100E6000D3E900670446394630462C60FFF7F8FBAB
:100E700032463B4649464046FFF7B2FB9AF820000F
:100E800008F08AFF484A494B05461968106808F07F
:100E9000CDFE294609F088F8454B0146186808F050
:100EA000C5FE444942464B460860DAE90E0108F0A7
:100EB000BDF933A3D3E9002308F06CFB02460B46CF
:100EC00000203D49DFF81091DFF8108108F0AEF9FD
:100ED00008F058FE394B364A39491060186808F056
:100EE000AFFF294609F060F808F000FBC9E90001EE
:100EF0003946304608F046FE98F8003000260027B4
:100F0000024621461846CDE90067FFF719FF2D4B31
:100F1000D3E9000108F0EEFD0446D9E9000108F02C
:100F200011FEDBE90067214632463B46C0B2FFF7BF
:100F300035FFFFF7E1FB98F80030234A0133DBB2BD
:100F4000FF2B08BF012388F80030136801333C2BC6
:100F500000F3108113600D2004F01EFAB0FA80F146
:100F600049090D2004F012FA184B0A4800221A60B1
:100F700003F038FE0DB0BDE8F08F00BFAFF3008086
:100F800000000040B6335440A09AFF1FD499FF1FC1
:100F9000709AFF1F1899FF1F6498FF1F7098FF1F1A
:100FA000F898FF1F489AFF1F189AFF1FC099FF1F4C
:100FB0001C9AFF1F1099FF1F00005940DC99FF1F6A
:100FC0000000C8426898FF1F2C88FF1F7498FF1FFD
:100FD0000899FF1F8098FF1FC899FF1F2888FF1FCF
:100FE00023680993664E099B664D1360FFF7DEFA8E
:100FF000D6E90067D5E90023D5E90601CDE9026706
:1010000008F016F9D5E902230746884608F010F9DA
:1010100002460B4638464146CDE9047808F0E4FB29
:10102000D5E9048906460F46C5E9086742464B469E
:10103000DDE9020108F0FAF832463B4608F0AAFA68
:1010400042464B4608F0F4F880468946C5E90489D3
:1010500032463B4600204C49DFF844A14B4F4C4EF2
:10106000DFF840B108F0E2F8DDE9042308F092FA75
:10107000C7E90089C5E90601DAE90023DAE90601D2
:1010800008F0D6F8DAE902238046894608F0D0F85D
:1010900002460B4640464946CDE9068908F0A4FBC6
:1010A000D6E90067CDE90401DAE904893046DDE9D3
:1010B00004564246CAE9085639464B4608F0B6F887
:1010C0002A463346CDE9045608F064FA42464B46B8
:1010D00008F0AEF806460F46DDE90423CAE90467C6
:1010E00080460D46002028492A4E08F09FF8DDE989
:1010F000062308F04FFA42462B46CAE90601DBF800
:101100000000C6E9002308F0F1F9DDE902670246B4
:101110000B463046394608F0CDFC28B130463946FA
:1011200008F030FDCBF800001B4E306808F0DEF907
:10113000DDE9029A02460B464846514608F09CFCFF
:1011400020B14846514608F01DFD3060134A13682F
:1011500005F1004501331360404629460022002373
:1011600008F080FC00287FF450AE40462946FFF787
:101170007FF94AE601231360FFF7CAFDEBE600BFE3
:10118000109AFF1FE899FF1F0000F03FF898FF1F1B
:101190000099FF1F489AFF1F7098FF1F7498FF1F48
:1011A000209AFF1F6498FF1F0028B1FBF0F115DDA6
:1011B00070B506464D08002401210D2004F0E6F824
:1011C000284604F021F900210D2004F0DFF8013455
:1011D000284604F019F9A642EED170BD704700BF51
:1011E00070B5064D05F178062C46601B03F09CFE99
:1011F00004F8010BB442F8D170BD00BF8098FF1F06
:1012000008B500210548782203F0A8FE4FF4FA61E2
:101210000520BDE80840FFF7C7BF00BF8098FF1F4B
:1012200008B507490748782203F09CFDFFF7E8FF5F
:1012300040F6B8310A20BDE80840FFF7B5BF00BF4F
:10124000E8E700008098FF1F2DE9F04F012189B0E9
:101250000D20964C964D974E04F0ACF800210D20D1
:1012600004F094F8206894490B783BB12B789B07E5
:1012700004D0236832689B1A182B04D823681B1AE1
:10128000B3F57A7FF0D94FF4FA708C4F04F0BCF8C4
:10129000C8210220FFF788FFFFF7A2FF3A8845F632
:1012A0004C639A4201D0FFF7BBFFFFF785FC40215A
:1012B0008348844D00F096F9072300930322002110
:1012C0007F4800F03FFA3A6FF96E7D4800F052FA1D
:1012D00028467D4902F0E8FA28467C4902F0EEFAF9
:1012E000042640F2FE7328468DE84800AA222323F4
:1012F000012102F0E5FA28463E22012102F012FB0C
:10130000AB68734923F00103AB60284602F008FB89
:101310006B6E002B00F0C7806A48DFF8E4A1DFF8AD
:10132000E4916C4E6C4D02F0CFFD97F82080404662
:1013300008F02EFDCAF80000404608F02DFD674970
:10134000DFF8C48108F07CFDDFF8C0C1DFF8C0E140
:10135000634A644911600023CCF80030CEF80030B5
:10136000C9F80000C8F80030FFF720F95E4BD3E958
:1013700000894946404608F005FCDFF898C15B4B00
:101380008646CCF800E01860D6E90023D6E90601CD
:1013900007F04EFFD6E9022382468B4607F048FF4E
:1013A00002460B4650465946CDE902AB08F01CFAFE
:1013B0008B46D6E9041282461346C6E908AB0A46B4
:1013C000404649469046994607F030FF52465B46F4
:1013D00008F0E0F842464B4607F02AFF804689466F
:1013E00052465B46C6E904890020414907F01EFFCA
:1013F000DDE9022308F0CEF8DFF81CC1DFF81CE1BC
:10140000CCE90089DEE90089D5E90023C6E90601B7
:10141000D5E90601CDE9028907F00AFFD5E90223E3
:101420008046894607F004FF02460B46404649467F
:10143000CDE9048908F0D8F9D5E9048982468B46BC
:101440004246DDE902014B46C5E908AB07F0EEFE76
:1014500052465B4608F09EF842464B4607F0E8FECF
:101460008046894652465B46C5E9048900202049EA
:1014700007F0DCFEDDE9042308F08CF81D4BC5E91C
:10148000060197F82100C3E9008908F081FC1A4B96
:101490001860FFF701FC23680793079A174B1A603F
:1014A00009B0BDE8F08F85F8686035E7A09AFF1FA6
:1014B0009C9BFF1FB89DFF1F849BFF1F8098FF1FF1
:1014C000509AFF1F1899FF1F5CE7000060E80000BA
:1014D00088E40000E899FF1F209AFF1F3333733F11
:1014E000B899FF1F00000744109AFF1F6498FF1F60
:1014F0000000F03F489AFF1FD899FF1FB099FF1FC7
:101500000488FF1FDC99FF1FC499FF1F7898FF1FF5
:10151000E099FF1F7098FF1FF898FF1F0099FF1FA9
:101520002DE9F04383B003F0B7FC02212248234C9D
:1015300003F000FC224B234A18680090DDF800E01D
:101540001B6801932049214BD2E90067C3F800E0F2
:10155000D1E900011E4B1F4ADDF804E0C3F800E0AA
:10156000D4E9008910A5D5E900451B4BC2E90667FF
:10157000C2E9020100260EA1D1E900010027C2E95B
:101580000467C3E90045154F154D00260024C2E944
:101590000089C3E90201C3E90667C3E9044503B052
:1015A000BDE8F083AFF30080000000A0F2D77A3EE0
:1015B00000000080B5F8E43E1899FF1F1888FF1F4F
:1015C000A09AFF1F1088FF1F2088FF1FD499FF1FBC
:1015D000709AFF1F209AFF1FE899FF1F00407F406D
:1015E000000024402DE9F0410D4B5D7BD3F81080C5
:1015F00086B0064628460F4600F0E0FB0124002393
:10160000084A0190039240462946049402930093AD
:101610001A4600F0E3FC2046377106B0BDE8F081C1
:10162000889AFF1FA086010070B5204C054682B045
:101630000E462046297900F0B7FD314620460026A7
:1016400000F0C2FA627B216900962046012301F076
:101650004FF87823013BFDD12979204600F0A4FD05
:1016600001232A79617B009320690196022301F00E
:1016700067F82069D0F83821D0F834319A42F9D08F
:1016800001F078F80646206901F074F80023054659
:101690000093627B21690548012301F029F8E8B233
:1016A00040EA062000B202B070BD00BF889AFF1F5A
:1016B00010B504210446FFF7B7FF08F06DFB216861
:1016C00008F0BEFB10BD00BF08B50221FFF7ACFF5C
:1016D00008F062FB014908F0B3FB08BD0AD7A33A42
:1016E00008B50621FFF7A0FFC0F3800008BD00BFCA
:1016F00008B50621FFF798FFC0F3001008BD00BF32
:1017000070B50F4C82B00E4601792046154600F0A8
:101710004BFD3146204600F057FA290A204600F0DA
:1017200053FAE9B2204600F04FFA00230093627B9F
:1017300021692046012300F0DBFF02B070BD00BF2D
:10174000889AFF1F70B59DF81040084E084D06613D
:1017500044EAC30343EA821242EA4122C56092B2DC
:101760000021FFF7CDFF012070BD00BF0000104237
:10177000ACC5A73D70B50446C068616115460E460C
:1017800008F012FC0E49A061284608F00DFC0D4936
:10179000E0612060054608F053FB2946A060304612
:1017A00008F04EFB0146084808F0FEFB08F00EFD6D
:1017B000052182B22046FFF7A3FF012070BD00BFC4
:1017C00000FEFF460000C841ACC5A73BF0B4314C59
:1017D000314B324E324D334A4FF40077276040F29E
:1017E00001241C603378304C43F0800333702B6845
:1017F00043F010032B60136823F400531360236835
:1018000043F080432360236823F000432360226871
:10181000254BD502FBD41A6882F000721A601A6850
:101820009201FCD4204C23681F4ADB01FBD51368CE
:1018300043F40033136013684CF2503443F0005308
:10184000A142136019D0194B99421AD0184B9942F2
:101850001BD0184B99420CD0174B9942114B0CBF1F
:10186000164A174A1A600023037043704360F0BCA5
:1018700070470C4B134A1A60F5E70A4B124A1A607C
:10188000F1E7084B114A1A60EDE7064B104A1A605F
:10189000E9E700BF30900440349004400050064017
:1018A0003C8004400440024000400240A086010009
:1018B00090D0030020A1070040420F000200090160
:1018C00002007B0702007B0102007B1302007B0900
:1018D00002007B03234B00221A604B78002B31D08F
:1018E0004B680A7820495B00002A23F0404323F02C
:1018F00001030CBF4FF080424FF0404213430B6096
:101900001A4A136823F0805313601368D901FCD47A
:10191000164A13681B01FCD4F0B51548DFF870E0D7
:10192000144F154E154D164C1649174A4FF00063CB
:10193000CEF800303B6033602B60236003600B60A7
:101940001360F0BD08784B68104A0749DB04002893
:1019500002EA03020CBF00234FF0004313430B6065
:10196000CEE700BF10400240484002400040024025
:1019700050410240104102402041024030410240AB
:101980004041024060410240704102400000F83F87
:1019900000410240024B1868C0F34010704700BF7E
:1019A00030400240F0B5CB8883B00C46EBB1304EEE
:1019B000304D32680092009F2A68910619D432682F
:1019C0000192019AD21B9A420CD204F09BFE2B6822
:1019D0009A060ED4E3882BB132680192019AD21B89
:1019E0009342F2D8002003B0F0BD224B1B689B0647
:1019F000F8D5214A1368C3F303436371126812F4E4
:101A000000122DD001211D4A2171126822F060427E
:101A100022601B4A1268E272100A110C042B4FEA72
:101A20001262A072617222720DD808332344002220
:101A3000103403F8012BA342FBD10E4B20220120CE
:101A40001A6003B0F0BD0F4A1268E273100A110C5D
:101A5000072B4FEA1262A07361732273E5D9ECE79A
:101A6000064922710A68C2F38A422260D1E700BFA8
:101A7000A09AFF1F30400240804002408440024054
:101A8000884002408C4002402DE9F041CE8882B06F
:101A900088461EB12E4B1B680093009E2D4C2C4F88
:101AA00008252201136803F07063B3F1006F11D0B1
:101AB000B8F806302BB901350F2D274C37DC2C44F4
:101AC000EFE73A680192019A921B93422FD904F0F2
:101AD00019FEE6E7136098F8043003BBD8F800104D
:101AE0001E4B1F482D0189040B402B50D8F808309D
:101AF0001C481D491BBA2B50D8F80C301BBA6B5030
:101B000098F80430BBB998F805301B0403F470232F
:101B100043F040630120136002B0BDE8F081D8F8C3
:101B200000300F492D0123F060436B50DEE70020A9
:101B300002B0BDE8F08198F805301B0403F470236F
:101B400043F046630120136002B0BDE8F08100BF9E
:101B5000A09AFF1F10240004082400040000FC1FAA
:101B600084400240884002408C4002400369D3F820
:101B70003801D3F83431C01A704700BF0369D3F875
:101B80003411D3F83821914208D2D3F83421511CB2
:101B90001A44C3F8341192F8300070474FF0FF3008
:101BA000704700BF0369D3F83411D3F8382191424C
:101BB0003DBFD3F834219B1893F830004FF0FF302D
:101BC000704700BF704700BF0369D3F84422B2F5E5
:101BD000817F03D90123037100207047D3F8442289
:101BE00010B49C180132C3F8442284F83C1101203F
:101BF00010BC7047F0B40569D5F84432B3F5817F65
:101C000020D8D5F84462D5F84442C6F5817601362D
:101C1000964205F59E7302D20127324607714AB1FA
:101C2000013C23448D1811F8014B03F8014FA942E0
:101C3000F9D10569D5F844321344C5F84432104649
:101C4000F0BC704701230371F0BC0020704700BF57
:101C500038B503690A4A026093F84822022A04460A
:101C600001D0204638BDD3F86452002DF9D0284663
:101C700004F0B8FB284604F0DBFB204638BD00BF6B
:101C800074E800002DE9F047002B40F2646740F251
:101C9000036640F203240BBFB846B0464FF41979EF
:101CA000A1469DF8207071BB012A31D80C4616461A
:101CB00005469A46AFB190F84B2290F84A32002A76
:101CC0000CBF00270227032B0BD8DFE803F0473CAB
:101CD000310239461F2003F06DFB39461A2003F00C
:101CE00069FBC4B9002E44D0012E05D12B4A2C4BE0
:101CF000C2F80090C3F8009085F84A6285F84BA2BC
:101D00000120BDE8F087012902D1941E012CCDD914
:101D10000020BDE8F087012CEED1022E36D0032E34
:101D2000EAD1204A204BC2F80080C3F80080E3E7E4
:101D300039461E2003F03EFB39461D2003F03AFBD6
:101D4000002CE8D1CEE73946122003F033FB3946A8
:101D5000132003F02FFB002CDDD1C3E739461120FF
:101D600003F028FB3946102003F024FB002CD2D1CD
:101D7000B8E70E4A0E4BC2F800900120C3F800905D
:101D800085F84A6285F84BA2BDE8F087094A0A4BFC
:101D9000C2F80090C3F80090AEE700BF0CA004406A
:101DA00008A0044000D0044004D0044004A0044033
:101DB00000A004402CB0044028B0044001280CBF0F
:101DC00002200120704700BFF8B5C3681B789B064E
:101DD00010D483680D4680211970C36812211970D0
:101DE00090F84932012B044606D08AB980F848227F
:101DF0000120F8BD0020F8BD1A4675B9454B4FF0DB
:101E000080711960022A0FD0012084F84802F8BDC1
:101E1000531E012BF1D90120F8BD012DF2D13D4B0C
:101E20004FF000711960EDE7D4F86462002E65D0C0
:101E30003379102B2ED0002D39D132683649938B4F
:101E4000364F43F0080393833279531102F11000A7
:101E50009B0041F8207003F1604303F561430121C9
:101E600002F01F0201FA02F231681A608B8B43F014
:101E700002038B83337903F1804303F50433962205
:101E80001D701A700022022384F85A2284F8483206
:101E90000120F8BD304604F0A5FA304604F0C8FA37
:101EA00000230120C4F8643284F84802F8BD012DF3
:101EB000E8D132681849938B194F43F00803938394
:101EC0003279531102F110009B0041F8207003F1A8
:101ED000604303F5614302F01F02954032681D60C4
:101EE000938B43F002039383337903F1804303F52B
:101EF00004330021972219701A70C3E7082004F0F8
:101F000093FA314607463E4604F008FAC4F8647274
:101F10008EE700BF00E100E00082FF1F3D2D0000C2
:101F2000492D0000F0B5284EDFF8ACE0A6FB0143D8
:101F3000A6FB02429E093702754696091424002327
:101F4000B7FBF6F604E00133372B1BD055F8044FEE
:101F500022029642F7DA83BB14241C4A4568B1FB7F
:101F6000F4F491422B70C0F84C4207D8184B8269A8
:101F7000A3FB0131C1F307511170F0BD8369042245
:101F80001A70F0BD002422464FF470274FF470659C
:101F90004FF0360CB21AF71B002A87EAE776A6EB59
:101FA000E776B8BF5242964202DD0A4AD35CD4E7D4
:101FB000084B2C4613F80C30CFE703F1FF3C5EF8DA
:101FC0002C502F02E6E700BFD34D6210FF6BDC02FE
:101FD000819F5E1668E900008CE80000F0B583B0D0
:101FE000044696469DF820009DF824209DF8287010
:101FF0009DF830600D4689BBDFF8DCC0DCF80010CE
:1020000041F04001CCF80010002184F849E284F846
:102010005112BEF1000F33D163692021197023687A
:1020200083F800E0E36983F800E000213B4600917B
:1020300020462946FFF726FE0B9A26492046FFF741
:1020400071FF324629462046FFF7BEFE94F849321A
:1020500093B3A368C0221A7003B0F0BD0129D3D195
:10206000DFF874C0DCF8001041F08001CCF80010FB
:10207000002184F849E284F85112BEF1000FCBD060
:10208000616970B14FF0280E81F800E09842216834
:1020900017D95B00DBB20B704000E369C0B2187067
:1020A000C3E74FF0200E81F800E021685B00DBB24F
:1020B0000B70E3691870B8E7A36880221A7003B048
:1020C000F0BD4000C0B208705800E369C0B218709B
:1020D000ABE700BF00512502348004402DE9F041F8
:1020E000154604460F46984603F06AF90DB9D4F830
:1020F000685203F065F9A3681A789206064609D576
:10210000B4221A7094F84832013B012B23D90120E4
:10211000BDE8F081CDB9E3681B7803F0200303F03C
:10212000FF02002BF6D1A36884F84922B0221A706E
:10213000A3681B7803F0200303F0FF00002BE1D11C
:10214000042384F85132BDE8F08103F039F9801B93
:102150008542E0D8ECE702F0C9FF97B1012F10D11A
:102160000F4B1B788342D2DB0F2813DD67B1012FA1
:102170000AD1A0F110030A4ADBB213703846BDE859
:10218000F081084B1B78EDE7A0F11003054ADBB2A4
:102190001370BCE7012088F80000BDE8F08100BFA3
:1021A00019E400E018E400E00369490083F83C11F9
:1021B000036900220121C3F84412027183F85122FD
:1021C000704700BF2DE9F043044683B0D0F84402C5
:1021D00000258DF8075070B190461E460BB9D4F813
:1021E0006862E36812221A7020460DF10703324636
:1021F000FFF774FF10B903B0BDE8F08394F84832DC
:10220000B3B19DF807209AB9591E0129F3D80125C9
:10221000022B84F8515284F85082C4F840225ED0D8
:10222000A368F0221A70236994F83C211A70E2E73F
:1022300003F0C6F8012384F85132D4F8445284F8EC
:1022400050820746EDB104F23B1800254FF0020919
:1022500036BB236918F8012F1A70E26813789807C3
:10226000FCD582F80090E2681378DBB2D9061DD461
:10227000DB0724D4D4F844320135AB42E8D894F8D3
:102280005082D4F84432AB4225D9042384F8513229
:10229000B8F1010FA3680CBF8022B0221A70AAE720
:1022A00003F08EF8C01B8642D3D8E8E7102307213D
:1022B00084F851121370A36880221A709BE735B11D
:1022C000062384F85132A36880221A7093E705230D
:1022D00084F85132F7E7002384F85132D8E7D4F874
:1022E0004432042B9CD9D4F8641284F85A520E68F4
:1022F000D4F84432F2710868357104F59F77727131
:102300003760057242728272C2720D68033BEB83C2
:10231000096818465B42EB60C882D4F864122069F1
:102320000B68B0F1804F9A7118611A755A750B6875
:1023300001D39A6832B9002201205A729A72DA7275
:1023400018720B6800221A765A769A76DA7667E760
:102350002DE9F04383B000258DF807509DF82870D3
:102360000B9E2BB1B3F5827F05D3082380F8513241
:1023700003B0BDE8F083C0F83451C0F85432C0F85F
:1023800038510EB9D0F86862C368904612221A70AC
:102390000DF1070332460446FFF7A0FE0028E7D000
:1023A00094F84832C3B19DF80720AAB9591E0129F3
:1023B000DED802218B4284F8507284F8511200F06A
:1023C000EA80A268F02111704FEA480343F001034C
:1023D0002269DBB21370CBE702F0F2FF4FEA480349
:1023E000226984F8507243F00103DBB2022184F8C1
:1023F00051121370E268054613789807FCD5022342
:102400001370E2681378DBB2D90608D4DA070FD567
:10241000A3680521802284F851121A70A8E71023BE
:10242000072184F851121370A36880221A709FE765
:10243000D4F854320322012BA36884F851220CBF34
:10244000A822A0221A7023691B7802274FF00008E7
:102450004FF0B009D4F83821D4F854329A4287D2D8
:1024600094F85132032B83D1E26813789B07FCD593
:102470001770002E46D1D4F83831D4F854220233E4
:102480009A422ED13346A268A8211170D4F838118F
:10249000D4F854220131914265D3A26884F859825C
:1024A00082F8009022691078D4F83821A1180132FE
:1024B000C4F8382181F83000002B4CD194F8503208
:1024C00084F85182012BC5D100231822013AFDD195
:1024D000A26880211170002BBCD0012384F85932EE
:1024E000B6E7D4F838310133934244D2002322694D
:1024F0001078D4F83821A1180132C4F8382181F8B5
:102500003000E8E702F05CFFD4F83831D4F8542208
:10251000401B991C86428CBF002301239142B2D0FC
:102520008642DED894F859320BB90123ABE7D4F8D0
:10253000381101318A421AD8A36884F8598283F885
:10254000009023691978D4F83831E2180133C4F8BF
:10255000383182F8301094F850320422012B84F87C
:102560005122B2D0B9E7002BC1D094F85932002BD8
:10257000E2D10123BBE7A36884F8598283F8009075
:1025800023691978D4F83831E2180133C4F83831A6
:1025900082F8301092E7D4F85432042B7FF611AF52
:1025A000D4F8641220690B68012584F85A52B0F1FE
:1025B000804FDA7118601A715A710B6801D39A68EA
:1025C00032B9002201205A729A72DA7218720B68BC
:1025D000D4F86402D4F85412056800221A735A73AE
:1025E0009A73DA73AA7103686A7504F130062E6172
:1025F00001262E755A729A72DA721E724B1E01688B
:10260000CB8300681A465B428B61C282D9E600BF69
:1026100070B51546044602F0D3FE0DB9D4F86852E1
:1026200002F0CEFE064694F85132002B50D094F8BA
:102630005132052B4CD094F85132062B48D094F8E7
:102640005132072B44D094F85132042B40D094F8E7
:102650005132082B3CD0002DE5D002F0B1FE801B9A
:102660008542E0D802F0ACFE801B854232D894F857
:102670004832022B2ED194F85A325BB394F851327F
:102680009BB194F85132052B0FD094F85132062BA0
:102690000BD094F85132072B07D094F85132042B09
:1026A00003D094F85132082BE8D1042384F8513236
:1026B00094F85132012B11D1042384F85132602354
:1026C000013BFDD194F85102B0FA80F0400970BD91
:1026D000002DC7D194F85132012BEDD094F851322E
:1026E000022BE9D094F85132032BE8D1E4E700BF84
:1026F00070B50C46154606461A462946049B2046E8
:10270000FFF760FD049A29462046FFF781FF3369F1
:1027100093F85132043B042B0CD8DFE803F0030993
:1027200007030500042070BD012070BD032070BDAB
:10273000022070BD3079003018BF012070BD00BF8D
:10274000F0B583B09DF8206013B9002003B0F0BD50
:10275000099F04460D468DE8C000FFF7F9FD099A70
:1027600029462046FFF754FF0028EED0D4F8380160
:1027700003B0F0BDD0F83421D0F838319A4208D2F5
:10278000D0F834315A1C0344C0F8342193F8300097
:1027900070474FF0FF307047F8B5C16887680D7813
:1027A0003B78DBB203F02002EDB212B313F0100F4E
:1027B00090F85A3277D0022B00F0D28090F85A323B
:1027C000032B00F0CD8090F85132012B00F0D18125
:1027D00090F85132DBB2022B00F0028290F85132B5
:1027E000042B00F0878180233B70C36802221A709B
:1027F000F8BD02F0FF06EA06044623D405F04002C5
:1028000002F0FF0012BB03F0100303F0FF06002BE1
:102810007CD015F0010540F06281D4F84022D4F854
:1028200044329A4207D2D4F840325A1C2344C4F8A6
:10283000402293F83C5123691D70A368D0221A707E
:10284000E16868E010236F060B7028D594F85132C8
:102850000A2B00F0DA8005F0040505F0FF03002DD7
:102860005CD0A3680021D022092084F85102C4F86A
:1028700044121A702269D4F8601213785B0884F845
:10288000523209B188472269D4F84432002B00F053
:102890002E8194F83C6116700123C4F84032E3683D
:1028A00002221A70F8BD022B00F0888090F85A328C
:1028B000032B00F08380D0F83831D0F85422023353
:1028C000934200F0078190F85132042B00F0FD8014
:1028D000D0F838310133934280F0D58090F85132EE
:1028E000042B00F0CB80D0F838310269591CC0F8B5
:1028F00038110344127883F8302090F85132042BB9
:1029000000F02E81C36802221A70F8BD94F851328B
:102910000A2B00F0448102230B70F8BD94F84A2280
:1029200084F85832012A00F06B81002A00F062819D
:10293000022A00F09381032A00F00D81A368C022CF
:102940000A20002184F85102C4F838111A70236952
:102950001B785B0884F85232E36802221A70F8BDD3
:10296000D0F8642213689B8B1C0603D590F85A326A
:10297000022B78D090F85A32032B52D0BA4B1279EE
:102980001C68012393402342C5D0B84BB8491A7044
:10299000D0F8642212790A700023E90680F85A32CE
:1029A00040F1D780C2681221072480F8514211708B
:1029B000826880211170C0F84032F8BDD0F86432CE
:1029C0001A68928B120603D590F85A22022A3FD039
:1029D00090F85A22032A00F09480A34C1A792468B4
:1029E00001239340234296D0A149A04B0A70D0F80E
:1029F000642212791A7082680023802180F85A328A
:102A000080F851321170C16885E7D4F85C32002B30
:102A10003FF421AF0022C4F83421D4F8380198479C
:102A200019E70B781D06FCD5924B12791A7000231A
:102A300080F85A32D0F844320269013BC0F8403283
:102A4000D0F84032034493F83C311370C16862E718
:102A5000864A1B7913708368E8221A700323C168C1
:102A600080F85A3257E7814B12791A708368F02246
:102A70001A700323C16880F85A324CE790F8593233
:102A8000002B3FF430AF90F851220023042A80F845
:102A9000593201D080F851328368B0221A70D0F8D0
:102AA00038310269591CC0F838110344127883F890
:102AB000302090F85032012B7FF41FAF1823013BD8
:102AC000FDD1836880221A7017E790F85932002BE5
:102AD0007FF4FEAEE8233B70D0F85422F8E6C02322
:102AE0003B702369E1681B7884F8510213E784F88E
:102AF0003C31D0E690F85032012B4DD0B0233B70E2
:102B000000E75C4A1B791370002380F85A3290F872
:102B10005122042A18BF80F851328368B0221A70FB
:102B2000D0F854320269013BC0F83831D0F838315E
:102B3000591CC0F838110344127883F8302090F8FB
:102B40005032012B05D11823013BFDD1836880222F
:102B50001A70C168DFE648491F2002F045FBEDE628
:102B600090F85932002B7FF4CDAE012380F8593212
:102B7000C8E605F0100303F0FF02002B46D115F064
:102B8000010551D080F85A22D0F84032002B40F095
:102B90008F80052380F8513280233B70B2E694F891
:102BA0004A2284F85862012A00F09280002A78D0E4
:102BB000022A00F09480032A00F0A48023691B7885
:102BC000D4F83821B2F5817FDBB23FF6A4AED4F859
:102BD0003821A0180132C4F8382180F830309AE644
:102BE000EC0632D4E9074BD50522802380F8512228
:102BF0003B7087E603222149112002F0F5FA9DE699
:102C000003221E49122002F0EFFA97E60023122257
:102C1000072480F85A3280F851420A708268802175
:102C20001170C0F84032F8BDD0F840320133C0F81E
:102C30004032D0F8442293423ED390F8503280F88C
:102C40005152012B7FF45AAFA6E70722122380F8D6
:102C500051220B70836880221A70F8BD0322064946
:102C60001E2002F0C1FA69E62C8000401F8000405F
:102C70001E8000401C800040092E0000FD2D000039
:102C800090F85A22012A31D0D0F85432012B0CBFCF
:102C9000E823E023032280F851223B7003691B786C
:102CA00030E623490322112002F09EFAE16885E70D
:102CB000062380F851326FE790F85A32012B27D063
:102CC000D0F840320269034493F83C31137019E69E
:102CD00017490322122002F087FAE1686EE71549CE
:102CE00003221E2002F080FAE16867E7E12280F803
:102CF0005A323A70D0F864220F4B12791A70036975
:102D00001B78FFE50B491F2002F06EFAE16855E7DA
:102D10000222F12380F85A223B70D0F86422064B3D
:102D200012791A70036990F83D211A70EAE500BF24
:102D3000FD2D0000092E00001B80004000210148ED
:102D4000FFF72ABD3488FF1F01210148FFF724BD8A
:102D5000A08AFF1FC3681B7803F02003CBB903F0E0
:102D6000FF0290F84A32012B10B5044680F8512238
:102D700027D053B3022B32D0032B37D0D4F85C3298
:102D8000CBB10022C4F83421D4F83801BDE810409A
:102D9000184790F858320133DBB2012B80F85832D3
:102DA0000AD990F84A32012B24D093B1022B13D0C8
:102DB000032B18D0704710BD90F84932012BF0D189
:102DC000F8E7122002F08CFAD8E7112002F088FA16
:102DD000D4E7112002F084BA1E2002F081BA1E202E
:102DE00002F07EFACAE71F2002F07ABA1F2002F032
:102DF00077FAC3E7122002F073BA00BF002101483E
:102E0000FFF7A8BF3488FF1F01210148FFF7A2BFC9
:102E1000A08AFF1F2DE9F843134BDFF85C90DFF821
:102E20005C80124E124D1E6000244FF47A774A46A1
:102E300041461C711C739F6018465C731D6107F04E
:102E4000E5F90C4B4FF0010E05F51B751C711C7359
:102E500083F80DE04A46414618461D619F601E609A
:102E6000BDE8F84307F0D2B9889AFF1F74E8000064
:102E70003488FF1F749AFF1FFC87FF1F511C00003E
:102E80002DE9F04F87B082460D4627490493DDE9CE
:102E900012899DF840409DF844B00592DDE9146721
:102EA00000F04EF9062029468AF80000504600F04E
:102EB000E3F9059A5046114600F0DEF9049B5046AE
:102EC000194600F0D9F92146504600F0D5F912A56F
:102ED000D5E900455946504600F0CEF9DFF84CC020
:102EE0004FF0000B42464B465046CDE90245CDE936
:102EF00000BC00F06DFA0FF22809D9E900893246CA
:102F00003B465046CDE91245CDE9108907B0BDE8F2
:102F1000F04F00F05DBA00BF0000000065CDCDC1EC
:102F2000000000E04D62503F12F201000000F03F4F
:102F30002DE9F04F8BB0DDE91689CDE90823DDE9F5
:102F4000142304461EA7D7E900678A46CDE90689FF
:102F500021499DF860500FF27009D9E90089CDE947
:102F6000042300F0EDF8514606200FF2640BDBE974
:102F700000AB2070204600F07FF9DDE908232046F1
:102F8000CDE90267CDE9008900F0C8F9DDE9042345
:102F90002046CDE90267CDE900AB00F0BFF920463D
:102FA000CDE90267CDE90089DDE9062300F010FADA
:102FB000294620460BB0BDE8F04F00F05DB900BFD8
:102FC0000000000065CDCDC100000040E17A843FE3
:102FD000000000A09999B93F14F20100FFFFFFFF24
:102FE0002DE9F04F89B091469B46DDE91423CDE9E8
:102FF0000623DDE91823044688463F499DF84860CA
:103000009DF84C709DF958A09DF96850CDE90423B6
:1030100000F096F80620414620704FEA0B1B204630
:1030200000F02AF90BF0300B09F00F0141EA0B0117
:1030300041F0C001204600F01FF906F00F0141EAFF
:1030400007110FF29409D9E9008925A7D7E900678C
:10305000C9B2204600F010F9DDE90623CDE900678A
:103060002046CDE9028900F0B3F95FFA8AF12046E3
:1030700000F002F90022214BDDE9040106F0D6F848
:103080000022002306460F4606F0F6FC38B916A3C8
:10309000D3E900233046394606F00CFD50B1FF213C
:1030A000204600F0E9F8E9B2204609B0BDE8F04F4B
:1030B00000F0E2B80FF23809D9E900891049002080
:1030C000CDE9020132463B46CDE90089204600F0B9
:1030D00063F8E8E7AFF300800000000065CDCDC1E4
:1030E000000000000020AC40000000A0C420E03F31
:1030F000000000E04D62603F19F201000000F03F67
:103100000000F0BF037810B410225C1C0470CA5495
:1031100010BC704710B40624084A047083B01268CB
:103120000192019C01720022FF21C0F8F04041721F
:10313000C260426003B010BC704700BFA09AFF1F7E
:10314000054B416082B01B680193019BC0F8F030D1
:103150000022C26002B07047A09AFF1F30B401F095
:103160000701094C017082B021680191019C9DF812
:103170001010426000250372C560C0F8F040417233
:1031800002B030BC704700BFA09AFF1F002343600D
:10319000C360C0F8F0307047F8B516461F460446C5
:1031A000DDE908233046394606F05CFCE0B9DDE98C
:1031B00006233046394606F017FB00220023064658
:1031C0000F4604F1100506F06BFCA0B100220E4B77
:1031D0003046394606F02CF806F08CFCE368E854DB
:1031E000E3680133E360F8BDE368E218FF210133CF
:1031F0001174E360F8BD0022034B3046394606F0F7
:1032000015F806F077FCE9E70000E03F82B002AB7A
:10321000C26823F8021D00F110011B888B52C3689D
:103220000233C36002B0704730B482B002ABC268F0
:10323000019133F8045D00F110018C188D529B78D8
:10324000A370C3680333C36002B030BC704700BFD3
:1032500030B482B002A961E9022302460B4603CBD7
:10326000D36802F11004E518E0506960D3680833B0
:10327000D36002B030BC7047C368C2180133117408
:10328000C3607047002A12DD70B40D78C36800F186
:1032900010066DB1002402E011F8015F4DB1F55444
:1032A000C36801340133A242C360F5D170BC7047DA
:1032B0002C460021F154C36801340133A242C3609B
:1032C000F8DCF3E7F0B583B006F08EFA00220023B5
:1032D00006460F46089C099D06F0E2FB90B10022CD
:1032E0000D4B3046394605F0A3FF06F003FC02AB58
:1032F000226823F8020D1B88AB5223680233236037
:1033000003B0F0BD0022044B3046394605F08EFF75
:1033100006F0F0FBEBE700BF0000E03F2DE9F043D3
:10332000164683B01F460446DDE90C233046394675
:10333000DDE90A8906F096FB78B102AB47F6FF7229
:1033400023F8022D04F11001E2681B888B52E36818
:103350000233E36003B0BDE8F08304F11005424698
:103360000C344B46304639460B950A9403B0BDE801
:10337000F043FFF7A7BF00BFF0B583B006F034FA03
:103380000022002306460F46089C099D06F088FB94
:1033900090B100220D4B3046394605F049FF06F04A
:1033A000A9FB02AB226823F8020D1B88AB522368ED
:1033B0000233236003B0F0BD0022044B304639468F
:1033C00005F034FF06F096FBEBE700BF0000E03F9E
:1033D0002DE9F043164683B01F460446DDE90C2371
:1033E00030463946DDE90A8906F03CFB78B102AB8C
:1033F0004FF6FF7223F8022D04F11001E2681B88DA
:103400008B52E3680233E36003B0BDE8F08304F15C
:10341000100542460C344B46304639460B950A940B
:1034200003B0BDE8F043FFF7A7BF00BF48B32DE9E5
:10343000F84304469846894699B1561E002502E095
:1034400027687F68B847102216F8011F013500234E
:10345000204603F015F84D454FF00102094920467A
:10346000EED1B8F1000F01D1BDE8F8832368064919
:103470005B682046002298472046BDE8F84302F0EA
:10348000D9BF704734E7000004E60000002950D09F
:1034900070B54468002C4BD0C368002B4ADD0B6824
:1034A0000C46054616462B495B6804222046984781
:1034B00000230A222978204602F0E2FF23682649E9
:1034C0005B6805222046984700230A226968204647
:1034D00002F0D6FF236821495B68082220469847FE
:1034E00000230A22297A204602F0CAFF23681C49D9
:1034F0005B6806222046984700230A22697A204604
:1035000002F0BEFF236817495B68052220469847F2
:10351000E968204602F0F4FF6EB1236812495B6847
:103520002046002298472046BDE8704002F082BF46
:1035300070BD704770BD23680C495B680622204649
:103540009847334605F11002297B2046FFF76EFFAE
:10355000E3E700BFA8E90000B0E90000B8E9000017
:10356000C4E90000CCE9000004E60000A0E9000086
:103570002DE9F0474568D0F8F040E6B0002900F0AA
:10358000DC80002D00F0D980C368002B40F3D5808B
:103590000DF108090B33DBB2102288460746932150
:1035A000022089F80020102B4FF0040289F8033024
:1035B00089F8010089F8021003EB01068DF8072055
:1035C00000F0C38005213B788DF80710102B09F817
:1035D00002301E4400F01481EAB24B1CDBB2102A08
:1035E0008DF8073009F80120164400F001812D0AFA
:1035F000EAB2591CC9B2102A09F8032016448DF802
:10360000071000F0ED80C5F307224B1CDBB2102A37
:1036100009F801208DF80730164400F0D9807A7A35
:1036200009F803200133DBB2102A8DF80730164465
:1036300000F0C6803A7A09F803200133DBB2102A81
:103640008DF80730164400F0B380E2B2591CC9B2BD
:10365000102A8DF8071009F80320164400F0A08006
:10366000240AE0B24A1CD2B2102809F8010006442C
:103670008DF8072000F08C80240AE3B2511CC9B2F7
:10368000102B09F802301E448DF8071078D0230A59
:103690004A1CD2B2102B09F801308DF807201E44C5
:1036A00066D0F968531CC8B2DBB2102809F80200D2
:1036B00006448DF8073052D000291CDD07F10F0AAF
:1036C000002502E00135A94215DD1AF8014F09F87D
:1036D00003405A1CD3B2102C8DF807302644F1D188
:1036E00049460DF10700FFF70DFDF9689DF8073019
:1036F0000135A942E9DC16F0FF0121D0591C7242C4
:10370000D2B2C9B2102A09F8032003BF023309F864
:103710000120DBB20B465A1CD2B21020032109F85B
:10372000030009F802100233D8F80000DAB28DF86D
:103730000720436849464046984766B0BDE8F08791
:103740005A1C09F80310D3B2E5E749460DF107000A
:10375000FFF7D8FC9DF80720511CC9B233E7494652
:103760000DF10700FFF7CEFCF9689DF80730A3E7DD
:1037700049460DF10700FFF7C5FC9DF8072090E7CB
:1037800049460DF10700FFF7BDFC9DF807107EE7E5
:1037900049460DF10700FFF7B5FC9DF807206BE7E0
:1037A00049460DF10700FFF7ADFC9DF8071057E7FC
:1037B00049460DF10700FFF7A5FC9DF8073044E7E7
:1037C00049460DF10700FFF79DFC9DF8073031E7F2
:1037D00049460DF10700FFF795FC9DF807301EE7FD
:1037E00049460DF10700FFF78DFC9DF807100AE729
:1037F00049460DF10700FFF785FC9DF80730F6E616
:1038000049460DF10700FFF77DFC9DF80710E3E640
:10381000F0B400240025C0E9084590F827101C4D9D
:103820001C4C1D4F1D4A056028260B25C46401F061
:103830000F011B4C4765A0F870601A4F8560822607
:103840003225C26344640022012461F03F01076213
:1038500080F8256080F8265080F82820C262026334
:10386000C265026602658265426680F86820C266AB
:103870008267C2670274426102760271427182718C
:1038800002648264846380F82710F0BC704700BF34
:10389000DCE9000094EB0000E8E9000008EB000020
:1038A000ECEB00000100C0FFC16301B17047036C85
:1038B00003B9014BC363704708EB000041647047D4
:1038C00070B4BDF80C609DF810404FF6FF75AE4225
:1038D00005D0056AC5F3140545EA465505624D1C39
:1038E00006D0056A6D0DC1F314016D05294301620F
:1038F000FF2A18BF80F82520FF2B1CBF5B0080F833
:103900002630FF2C09D090F82720240164F07F0393
:1039100002F00F041C4380F8274070BC704700BFC2
:10392000C16570470023417180F8282003767047F5
:1039300070B4040CE5B2C0F382662402EF2D187057
:1039400004F47F440E70039B4FEA1021C0F3006023
:1039500008D9C9B20C43FF2144EA0040197070BC79
:103960001060704744EA0040197070BC10607047E6
:1039700010B4C1F30724EF2C07D9800600F0E05003
:1039800042EA0122104310BC704742EA032280063B
:1039900042EA012200F0E050104310BC704700BF23
:1039A000B0F87430B0F872209A4225D070B5054650
:1039B00082B005E0B5F87220A5F874309A4218D0AC
:1039C000B5F87040E96E2868013393FBF4F204FB0C
:1039D0001233DCB222018B1889585E7B1A7900966B
:1039E000053306682846B047A3B20028E2D102B0EA
:1039F00070BD012002B070BD012070472DE9F04379
:103A000083B00E4614461D4680469DF82870FFF789
:103A1000C7FF78BBD8F86C1041B3B8F87230B8F86B
:103A20007000B8F874E0013393FBF0F200FB12333E
:103A3000DBB29AB2964519D01B01C818A8F87220BB
:103A400014D0CE500471477364B1013C2C44691EFC
:103A50000430073511F8013F00F8013FA14201D0C1
:103A6000A942F7D1012003B0BDE8F083002003B0E4
:103A7000BDE8F083D8F800300097D3F800902246D4
:103A80002B4631464046C8470028C3D0EAE700BF6E
:103A90004FF6D863994208D0114B124A8B4204D09A
:103AA0002BB152F8043F8B42FAD101207047002914
:103AB000FBD010B400F15004583054F8042F1AB160
:103AC0001368994209D023B9A042F6D1002010BC56
:103AD000704752F8043F9942F5D10120F7E700BF43
:103AE00000ED010054EA000030B400241C700029ED
:103AF00038D00124B1F5684F147009D04FF46A44EE
:103B00008C42204D04D034B155F8044F8C42FAD188
:103B1000012030BC70474FF6D864A14208D01A4C3F
:103B20001A4DA14204D044B155F8044FA142FAD134
:103B300001211970084630BC704700F14805147027
:103B4000503055F8044F1CB122689142E0D062B960
:103B5000AC681CB122689142EAD05AB98542F0D1D2
:103B60000020D6E711700846D3E754F8042F91429D
:103B7000EDD1CDE754F8042F9142EED10121197017
:103B80000846D8E744EA000000ED010054EA0000CE
:103B90002DE9F04F87B00DF10D040646904608461A
:103BA00004AA0DF10B011D46009403ABFFF7C0FE04
:103BB00030460DF10E030DF10F020499FFF794FF4B
:103BC00018B9B368DB0600F1F7809DF80E30002BC2
:103BD00040F08480864B96F868901B680593DDF86A
:103BE00014B0B9F1000F00F0ED80D6F864E0049A4B
:103BF0009EF8F5409DF80C30002C40F0F6807146A0
:103C0000CA46DC4610E0D1F8F070674538BFA246DE
:103C100004F1010438BFBC46A14501F1FC0100F0EC
:103C2000D38091F8F57047B94F689742EBD10F7A7E
:103C30009F42E8D1A14500F0C780C4EB8417BF00C4
:103C4000BE449DF80FA09DF80DC08EF8F7004FF010
:103C500000098EF8F6A08EF8F5909DF80B10CDF8BF
:103C600000C07046FFF77AFA736E9DF80E203B4451
:103C700083F8F990736E002A7FD03B442A7883F84A
:103C8000F820736E69783B44B8F1020F1A46D96088
:103C900017DDA844023501E0736E3B4493F8F92028
:103CA00015F8011B134445451974736E3B4493F892
:103CB000F92002F1010283F8F920EDD1726E3A4445
:103CC000D16892F8F9308B42ACBF0123002382F80F
:103CD000F43071DB204607B0BDE8F08F95F800C0E6
:103CE0001CF01F0F3FF476AF96F86810002963D0E0
:103CF000D6F864E004989DF80C707346002404E044
:103D00000134A14203F1FC0356D05A688242F7D134
:103D10001A7ABA42F4D1A1424ED0C4EB8417BF0044
:103D20000EEB070090F8F830013363450BD0012209
:103D3000002380F8F52080F8F630FFF727FA706E40
:103D400095F800C03844B8F1010F80F8F8C0B5DD2F
:103D5000A8440135736E15F8011B3B44A84593F840
:103D6000F92013441974736E3B4493F8F92002F15F
:103D7000010283F8F920EDD1A0E73B4483F8F82055
:103D8000736E3B44C3F80C80B8F1000F29D0A844EF
:103D900001E0736E3B4493F8F92015F8011B1344BE
:103DA000A8451974736E3B4493F8F92002F101029F
:103DB00083F8F920EDD181E74FF0FF34204607B0BA
:103DC000BDE8F08FDC46CA460CF1640CDC45F3D24A
:103DD000CA45F1D05446049A9DF80C30D6F864E0F8
:103DE0002BE7012283F8F42074E7002425E700BFC5
:103DF000A09AFF1F8368DA0700D470470A4641790A
:103E000003290AD01B0710B408D4012903D08379F1
:103E10009BB1012B0BD010BCEFE77047836B147A7A
:103E2000002BF2DD90F82830A342EED1EFE7C16815
:103E300010BC10460022FFF729BBC16810BC104619
:103E4000FFF796BB91F8F73013B983685B0701D48D
:103E5000FFF7D0BF704700BF2DE9F043FF29BFB087
:103E60000E460546144607D0002C02DBAB6BA3427E
:103E700006DC3FB0BDE8F083531CF5D10024F5E724
:103E800004EB4407FF00EB1901A893F828102F4416
:103E9000FFF740F9D7E9088901A84FF46E418DF882
:103EA0000D60FFF74DF942464B4601A806218DF8FB
:103EB0000410FFF7CDF9224601A9284600F0E0F9E9
:103EC0003FB0BDE8F08300BF037C002B34D12DE967
:103ED000F043436E83B00446002B40D0E56E002DC6
:103EE0007BD0237953B30120E568207415B1A37901
:103EF000012B28D0C82001F087FA237C0BB9227946
:103F0000B2B16279A2B1033A012A11D9E56800235E
:103F1000636115B1A379012B7DD00022FF212046DA
:103F2000FFF79AFF414A237C12680192019A62616D
:103F3000184603B0BDE8F083184670472368204652
:103F40005B689847D0E72B68002851D038495B68F8
:103F5000102228469847284602F06CFACAE790F8E3
:103F60006870002F4DD0C7EB8710800002F05EFA1A
:103F7000013F064635464FF000084FF001090F217A
:103F80002846FFF7C7F8013F85F8F48085F8F590DB
:103F900085F8F6802846FFF7F9F87B1C05F1FC054B
:103FA000EDD194F868306666002B97D00025334633
:103FB000A8462E46012700E0636E2B44184683F87E
:103FC000F57083F8F680FFF7E1F894F86830013671
:103FD000B34205F1FC05EFDC80E7B4F870000001A6
:103FE00002F024FAA4F87250E066A4F8745078E75E
:103FF00010495B68192228469847284602F01AFAA9
:1040000078E7052380F8683040F2EC4002F00EFAC1
:1040100004270646AEE72B6807495B68132228464B
:104020009847284602F006FA77E700BFA09AFF1FDC
:1040300060EA000074EA000090EA00002DE9F04F09
:104040004E6816F0FF0F1CBFFF234B72002A89B089
:1040500027DB02EB420200EBC20292F828200A7230
:10406000FD2A1AD84B7A05460C4608783146FFF7E8
:104070007FFC6B79824683B17EB12E79012E12D0FE
:1040800007D3022E09D12046E968FFF771FA012013
:1040900004E02846FFF718FF60B9002009B0BDE82A
:1040A000F08F0A7ADCE72046E9680022FFF7EEF994
:1040B0003046F3E76B6933B16A4A12680592059A94
:1040C000FA339342E9D8E668082E1ADC616828467C
:1040D000FFF7DEFCA8B90090F2B2514604F11003DC
:1040E0002846FFF78BFC064628B9E86818B1AB797B
:1040F000012B00F09380AB681B0700F185803046F0
:10410000CCE7594AF31F82FB03121A44DB17C3EBB7
:10411000A203564A023312680393002B4FEA42125D
:104120007ADD53B2002702933246B9464FF0010BB5
:104130000DF12008029B0BF1FF3633438DF8183048
:10414000002E00F0818007F10F01214406A8012311
:10415000974228DA013311F801EF00F801EF082B3C
:1041600007F10107F4D101230093082206AB514661
:104170002846FFF743FC78B9B0460646E86810B118
:10418000AF79012F16D0394B384A1B680133072B02
:10419000C8BF00231360AEE7039B5B453ADDE268CE
:1041A0000BF1010BC6E706AA134403F8019B9845DF
:1041B000FBD1D8E703682E495B6804229847334651
:1041C0006168E8680A2202F05BF9E8682949036837
:1041D00008225B6898474146E86802F091F9E86870
:1041E000254903683A465B6898470399E86802F0F6
:1041F00087F9EF6821493B6838465B680C2298478D
:10420000384602F017F9BEE728462146FFF7F2FDCF
:10421000304643E70646B6E70126B4E7036814498B
:104220005B680422984733466168E8680A2202F016
:1042300027F9EF6811493B6838465B680C229847BC
:10424000384602F0F7F856E78DF819200223FA18DD
:10425000224406A9927BCA540133082BF7D10637B2
:1042600081E700BFA09AFF1F932449929C9AFF1FE9
:10427000A4EA0000BCEA0000C8EA0000ACEA0000C2
:10428000836B934201DDFFF7D9BE0020704700BF6A
:10429000F0B5FF29BFB00D460446164606D0002EE5
:1042A00002DBA36B9E4205DB3FB0F0BD531CF6D191
:1042B0000026F6E706EB460304EBC30301A893F8D8
:1042C0002810334FFEF726FF01A84FF4F7318DF881
:1042D0000D50FEF735FF0623002101A88DF80430AC
:1042E0004FF46A45FEF7C8FF4FF4684102E02946E3
:1042F00057F8045F01A8FEF797FF002DF7D1E36D93
:1043000053B1196841B1042501A8FEF78DFFE36D93
:10431000595904350029F7D1A36BB34232DC01A807
:10432000FEF734FF4FF4F73101A8FEF709FF012132
:1043300001A8FEF7A1FF4FF46A454FF4684101A8B8
:10434000144FFEF771FF3DB1294657F8045F01A8ED
:10435000FEF76AFF002DF7D1236E53B1196841B102
:10436000042501A8FEF760FF236E59590435002982
:10437000F7D1A36BB34297DD324601A92046FFF780
:104380005DFE91E7324601A92046FFF757FEC6E7DA
:1043900028EA000044EA0000F8B50E460446394910
:1043A000FEF7CEFE06232370B6F900102046FEF776
:1043B0002DFFB6F902102046FEF728FFF71C002556
:1043C00004E00135FEF758FF202D0CD017F8013F0F
:1043D00020461946002BF4D1013500212046FEF776
:1043E0004BFF202DF8D106F12407002504E001350C
:1043F000FEF742FF202D0CD017F8013F204619464A
:10440000002BF4D1013500212046FEF735FF202D89
:10441000F8D106F14507002504E00135FEF72CFF31
:10442000202D0CD017F8013F20461946002BF4D15F
:10443000013500212046FEF71FFF202DF8D106F19F
:104440006607002504E00135FEF716FF202D0CD08D
:1044500017F8013F20461946002BF4D10135002101
:104460002046FEF709FF202DF8D196F88810204647
:10447000FEF702FF96F889102046BDE8F840FEF7E7
:10448000FBBE00BF14F001000B682DE9F0470F469A
:104490000546002B00F081801E78002E00F08D80F4
:1044A000002613F8012F0136002AFAD1D92EA8BF11
:1044B000D92606F1020A5FFA8AFA7B68002B72D0CD
:1044C0001A78002A75D04FF0000913F8012F09F16E
:1044D0000109002AF9D1BB68002B68D01A78002A9C
:1044E00069D04FF0000813F8012F08F10108002AE5
:1044F000F9D109EB0603D92BC8BFD92308EB030276
:10450000C8BFC6F1D9092E49D92A2846C8BFC3F168
:10451000D908FEF715FE062309F102012B70C9B276
:104520002846FEF7A9FE01212846FEF7A5FE002435
:10453000B9F1000F07D07B682846195D0134FEF7FA
:104540009BFEA145F7D108F10201C9B22846FEF74A
:1045500093FE01212846FEF78FFEB8F1000F08DD1B
:104560000024BB682846195D0134FEF785FEA0458E
:10457000F7D151462846FEF77FFE01212846FEF777
:104580007BFE46B100243B682846195D0134FEF7E6
:1045900073FEB442F7D1BDE8F0871E467B684FF04A
:1045A000020A002B8CD19946BB68002B96D1984605
:1045B0009FE791468FE790469BE74FF0020A7CE722
:1045C00016F001002DE9704F856B0B7A002D82B03B
:1045D00004DD90F828409C42064602D002B0BDE8B7
:1045E000708FD0E90889D1E904ABD94508BFD0451F
:1045F0003FD3CB4508BFC24535D00022FF2B02D0A8
:10460000013386F828304ABB32460123012B0ED0F5
:10461000AB4292F8281096F8284002F1180203F1F4
:10462000010309DA8C42F1D123460122E6E7012D8C
:1046300004DD18320223EBE78C42F5D0012300227F
:1046400033767261FF213046FFF706FC0C4B1B6886
:104650000193019B736102B0BDE8708F96F828400A
:1046600001222346CAE796F82420013286F8242046
:10467000C3E70022FF21FFF7EFFB02B0BDE8708F18
:10468000A09AFF1FF8B504460F464FF4684116463E
:104690001D46FEF755FD0623237039462046FEF7DA
:1046A000EBFD31462046FEF7E7FD2046FF21FEF7F1
:1046B000E3FD2046FF21FEF7DFFD2046FF21FEF748
:1046C000DBFDE9B22046FEF7D7FDC5F30721204602
:1046D000FEF7D2FDC5F307412046BDE8F840FEF7DE
:1046E000CBBD00BF2DE9F04F83B004468B461C497B
:1046F00001929A46DDF83090DDF834800E9F9DF8E7
:104700003C609DF84050FEF71BFD062323700FFA16
:104710008BF12046FEF77AFD019A204611B2FEF792
:1047200075FD514620462022FEF7ACFD4946204645
:104730002022FEF7A7FD414620462022FEF7A2FDDB
:10474000394620462022FEF79DFD31462046FEF7E1
:1047500093FD2946204603B0BDE8F04FFEF78CBD1F
:1047600014F0010070B501EB410300EBC3030446F4
:10477000C4B00D4607A893F82810FEF7CBFCE36BF6
:10478000226C934210D0194607A8FFF705FEA36BD1
:104790009D4202DB002044B070BD2A4607A9204696
:1047A000FFF74CFC44B070BD93F889005A88198813
:1047B000049093F88800039003F1670003F1460624
:1047C000029003F125008DE84100043307A8FFF7AC
:1047D00089FFDCE72DE9F04F044683B015469A4681
:1047E0000E46002900F08280084606F0E9FA5028BB
:1047F000A8BF502000F102095FFA89F380460193B7
:10480000002D78D0284606F0DBFA5028A8BF5020AB
:1048100000F1020B81465FFA8BFBBAF1000F52D018
:10482000504606F0CDFA5028A8BF502008EB0902E8
:104830001118D929074647DD36492046C2F1D90764
:10484000FEF77EFC0622594622702046FEF714FD34
:1048500001212046FEF710FDB9F1000F4FDD05EBF9
:10486000090B15F8011B2046FEF706FDAB45F8D1F4
:10487000B91CC9B22046FEF7FFFC01212046FEF715
:10488000FBFC002F08DD5546574415F8011B204658
:10489000FEF7F2FCAF42F8D101992046FEF7ECFC9E
:1048A00001212046FEF7E8FCB8F1000F08DD35468F
:1048B000B04415F8011B2046FEF7DEFC4545F8D153
:1048C00003B0BDE8F08F574612492046FEF738FC8A
:1048D0000622594622702046FEF7CEFC01212046D2
:1048E000FEF7CAFCB9F1000FB9DCC1E7022301935E
:1048F0008846002D86D14FF0020BA9468DE7B91CE2
:104900002046C9B2FEF7B8FC01212046FEF7B4FCF0
:10491000B9E700BF16F0010030B501EB410300EB31
:10492000C303BFB004460D4601A893F82810FEF754
:10493000F1FBA16C49B10EC901A8FFF74BFFA36BB6
:104940009D420ADB00203FB030BD616C61B101A81F
:10495000FFF79AFDA36B9D42F4DA2A4601A920468F
:10496000FFF76CFB3FB030BD034BFF22012101A8D4
:10497000FFF788FEE3E700BF16F00100F0B5B2F5DF
:10498000F73FC1B00E465ED01446054634D93E4AC4
:1049900094421AD00232944237D15C00E21800EB04
:1049A000C202497A92F8282091425FD0374A2344C4
:1049B00005EBC3031268039293F82800039A0A21B7
:1049C00011FB00221A6341B0F0BD5C00E21800EB5D
:1049D000C202497A92F8282091423AD02B4A2344C5
:1049E00005EBC3051368029395F82820029B03EB9F
:1049F000C203EB6241B0F0BDB2F56E4F05D11A466D
:104A0000097AFFF729FA41B0F0BDEF6F2FB11A46CE
:104A1000317A2046B8470028F5D10F2103A8FEF7C8
:104A200079FB2346FF2203A80121FFF72BFEAB6B86
:104A3000327A8DF81520002BE5DD03A928460022E7
:104A4000FFF7FCFADFE71A46097AFFF721FC41B0CD
:104A5000F0BD002BC2DB826B9342BFDA1946019393
:104A6000FFF780FE019B0028CDD1B7E7002B9DDB2F
:104A7000826B93429ADA19460193FFF74DFF019B2F
:104A80000028C0D192E700BF14F00100A09AFF1FD8
:104A90002DE9F041856B4A7A002D03DD90F828302E
:104AA00093422BD0FF2A19D14FF0FF33CC68033C3F
:104AB000052C1AD90027FF2A12D1002D0EDD0E4633
:104AC0000546002423463A4631462846FFF756FF5E
:104AD000AB6B0134A342F5DCBDE8F081BDE8F081A9
:104AE0003A46BDE8F041FFF749BF4C7C8F7C0E7C15
:104AF000240244EA074444EA0607DCE70023D5E73A
:104B000070B54679F21E012A1AD9C1EB8111426EA5
:104B10008C00111991F8F62092B183689B07054625
:104B200012D47EB1696E21444B68B3F56A4F0FD041
:104B3000B3F56E4F06D12846FFF744FD012070BD46
:104B4000002070BD012070BDFFF754F96E79E8E7D1
:104B50002846FFF79DFF012070BD00BF836B002B2F
:104B60003CDD2DE9F041002582B00646DFF870807B
:104B70002F46044604E001359D4204F118042ADA68
:104B8000E26A72B1D8F80010009100998A4208D206
:104B9000002D06DB29463046FFF7E4FDB36B00B17C
:104BA000E762226B002AE6D0D8F800100191019943
:104BB0008A42E0D2002DDEDBAB42DCDD2946304606
:104BC000FFF7AAFEB36B0028D5D001359D422763BD
:104BD00004F11804D4DB02B0BDE8F081704700BFD7
:104BE000A09AFF1F2DE9F04184B000238DF8033017
:104BF0000446FFF769F908B1277917B104B0BDE899
:104C0000F0812046FEF7CCFE2046FFF7A7FF1426D2
:104C10004FF00108226802AB956801A90DF103026B
:104C20002046A84702AB0028E8D001999DF8032050
:104C30002046FEF7ADFF051E2946204613DBFFF791
:104C40005FFFC5EB851398B19D00A36F13B1606E34
:104C500028449847636E2B44184683F8F58083F800
:104C6000F670FEF793FA013ED4D104B0BDE8F081AE
:104C7000616EC5EB8515AD0029442046FFF7E2F8CB
:104C8000E3E700BF30B585B001248DF80520009121
:104C90008DF804406AB1013A1A44591E0DF1070417
:104CA000073311F8015F04F8015F914201D0994286
:104CB000F7D16946D0F88C00FCF7E6FEA0F10100C0
:104CC000B0FA80F0400905B030BD00BF08B5D0F89B
:104CD0008C100846FCF7FEFD012008BDF0B5064625
:104CE00085B0D0F88C000F4615461C46FCF752FEE6
:104CF00000281BDDD6F88C006946FCF753FE9DF8B2
:104D00000530009A3A602B706BB1631E0DF10700FD
:104D1000002110F8014F03F8014F2C7801318C422B
:104D200001DD0829F5D1012005B0F0BD002005B056
:104D3000F0BD00BF70B504460E46FEF769FD074B97
:104D40002360082001F070FB05490546FCF73EFD95
:104D5000A4F89060C4F88C50204670BD00EC0000B0
:104D600090D00300844641EA000313F003036DD1A1
:104D7000403A41D351F8043B40F8043B51F8043B1E
:104D800040F8043B51F8043B40F8043B51F8043B25
:104D900040F8043B51F8043B40F8043B51F8043B15
:104DA00040F8043B51F8043B40F8043B51F8043B05
:104DB00040F8043B51F8043B40F8043B51F8043BF5
:104DC00040F8043B51F8043B40F8043B51F8043BE5
:104DD00040F8043B51F8043B40F8043B51F8043BD5
:104DE00040F8043B51F8043B40F8043B51F8043BC5
:104DF00040F8043B403ABDD2303211D351F8043B65
:104E000040F8043B51F8043B40F8043B51F8043BA4
:104E100040F8043B51F8043B40F8043B103AEDD213
:104E20000C3205D351F8043B40F8043B043AF9D264
:104E3000043208D0D2071CBF11F8013B00F8013B37
:104E400001D30B8803806046704700BF082A13D344
:104E50008B078DD010F003038AD0C3F10403D21A5C
:104E6000DB071CBF11F8013B00F8013B80D331F890
:104E7000023B20F8023B7BE7043AD9D3013A11F810
:104E8000013B00F8013BF9D20B7803704B7843707B
:104E90008B78837060467047F0B51B4B1B4E59688A
:104EA00018689A68DB6885B06C460FC43378990738
:104EB0001DD5174A174C1378174913F0700318BF04
:104EC0001370164A164B80271770002633200322D2
:104ED00026706D4608701A7072B6043C45F00105E4
:104EE0002046A84762B6237813F0700309D10D4B12
:104EF000064901E0013B02D00A78D207FAD505B095
:104F0000F0BD237005B0F0BD0CEC000001000240C4
:104F100000000240040002400B0002400700024073
:104F20000A000240410D0300B0F5006F0AD210B52F
:104F3000094B1B78DB07044606D504F1A050007826
:104F4000C0B210BD00207047FFF7A6FF04F1A050CB
:104F50000078C0B210BD00BF01000240B1F5006F83
:104F600060D2F0B5374B1B78DB0785B00C465AD5BD
:104F7000B2F5006F03D28B18B3F5006F5ED3C1F5A5
:104F80000062314D2F4B14F0030118D002292DD0AF
:104F900004F1A056077831788F4200F1010008D063
:104FA000297811F0700118BF297037701978C90776
:104FB000FCD5013A0134002AE5D105B0F0BD032A41
:104FC00014D904F1A05650F8047B31688F4208D000
:104FD000297811F0700118BF297037601978CF0750
:104FE000FCD5043A0434002ACDD1E6E7012ACFD01B
:104FF00004F1A05790F801E001783E8841EA0E21C3
:105000008E4200F1020008D02E7816F0700618BF0C
:105010002E7039801978CE07FCD5023A0234002A66
:10502000B1D1CAE77047039202910190FFF734FFB4
:1050300001A807C8B2F5006F9DD3A0E7002AA0D150
:10504000BBE700BF0100024000000240024A1368B3
:1050500001331360704700BFA09AFF1F08B5104CC2
:1050600008E0236859050DD423681A050FD4236876
:10507000DB0411D423685803F3D500F03DFB23680B
:105080005905F1D501F024FF23681A05EFD502F088
:10509000C1FA2368DB04EDD502F074FDEAE700BF36
:1050A0003480044008B5FFF7D9FF00BF014B102240
:1050B0001A80704700200540704700BF094908B5B5
:1050C0000B6830B16A461844A2F58052904202D271
:1050D0000860184608BD05F0A5F80C2303604FF0E2
:1050E000FF3008BD0C8DFF1FFEE700BFEFF31380FC
:1050F00070B9EFF310836BB9EFF305825AB94FF42F
:105100008070EFF311832BB1984228BF1846704787
:105110004FF0FF3070470F2A01D81846F1E7014BD6
:10512000D05CEEE7F0E300E0704700BF10B40F4B37
:1051300053F8302092F880422CB1012369B182F8F3
:10514000803010BC704703EBC0035B681A6841B93C
:1051500022F002021A6010BC704782F8003110BCC5
:10516000704742F003021A6010BC70471CEC00004C
:105170001C4A02EBC00301295B6811D004291BD033
:1051800052F83000002280F8802229B1022920D074
:10519000032922D01A6070474FF480721A6070475A
:1051A00052F830004FF4A27280F880121A601A6828
:1051B00022F020021A60704752F830104FF4A272A9
:1051C000012081F880021A601A6842F020021A60F9
:1051D000704740F203121A6070474FF481721A60F0
:1051E000704700BF1CEC0000212817D8F8B5042A2E
:1051F00013D8DFE802F0494C4F1446002C4872B631
:10520000236823F4702343F08072C4F384011643AF
:10521000236040F82150266062B6F8BD70474FF415
:105220001026244B03EBC0030D465C68216811F483
:10523000E06134D0204B214A2149C3F89C2104F17C
:1052400040422048C3F8A411A2F592211E4FC3F892
:10525000A0017C291D48C3F8A871C3F8AC01CDD9C1
:10526000A2F594237C2B18D9A2F596237C2B19D96F
:10527000A2F598237C2B17D9A2F59A227C2A15D95E
:10528000F8BD4FF43026CCE74FF40026C9E74FF4C1
:105290004026C6E74FF42026C3E70D48AFE7FFF7E7
:1052A00067FFC7E70B48AAE70B48A8E70B48A6E744
:1052B000108DFF1F1CEC00000082FF1FD187FF1F15
:1052C0007987FF1FA587FF1F4D87FF1F2187FF1FBE
:1052D000488DFF1F988DFF1FC88DFF1FE88DFF1F92
:1052E0001A4B03EBC00010B4426802F14043A3F52F
:1052F00092217C2905D9A3F594217C2913D814493E
:1053000000E0144972B61368134C23F08773C2F39C
:10531000840023F4803343F08073136041F820400D
:1053200062B610BC7047A3F596217C2909D9A3F574
:1053300098217C2907D9A3F59A237C2BF1D807491A
:10534000E0E70749DEE70749DCE700BF1CEC0000A7
:10535000488DFF1F108DFF1F29510000E88DFF1F92
:10536000988DFF1FC88DFF1F30B4054B054D064CAF
:10537000002210211A602A602060196030BC70473A
:1053800014D0034004D0034000D00340212801D8AA
:10539000FFF7CCBE704700BF212806D8044B53F856
:1053A000303093F80002C0B270470020704700BF51
:1053B0001CEC0000212801D8FFF7DABE704700BFBF
:1053C00072B60D490D4B0E4A1B680868126862B62A
:1053D000520102D5322B88BF01300A49C3F58C3304
:1053E0004FF47A7203F23F13A1FB031302FB00F0A8
:1053F00000EB1310704700BFA09AFF1F18E000E0F9
:1054000004ED00E0398EE3382DE9F843054672B625
:10541000214F224B224A1B683C68126862B6520137
:1054200002D5322B88BF0134A5B3C3F58C331D4E92
:10543000DFF86890DFF8688003F23F134FF47A7268
:10544000A6FB031302FB04F404EB131472B6D9F8A1
:1054500000103A68D8F800E062B6C1F58C3303F268
:105460003F13A6FB03031EF0806FC4EB13134FF42E
:105470007A7002D0322988BF013200FB0233B3F5C3
:105480007A7F04D3013D05D004F57A74DEE701F09C
:1054900039F9DBE7BDE8F883A09AFF1F18E000E0C8
:1054A00004ED00E0398EE338F8B52D4B2D49DFF8D7
:1054B000D0E0DFF8D0C02C4E2C4D2D4C2D4A2E4F75
:1054C0004FF4000018604FF0807018604FF00070CB
:1054D00018604FF0806018604FF000601860002086
:1054E0000860282348F6FF71CCF80010CEF8003091
:1054F000336013602B6023603B60B36293620922C8
:1055000045F8242CC4F8D80F05F57F65C7F8D41FDB
:1055100007F5FF2707F5FA67C6F8F83F2B6006F591
:10552000FF26C4F8D42F05F5FD2504F5FF243860C7
:1055300006F2F4761148316005F5FF6504F5FD6467
:105540002B602360026001F00BF93220FFF75CFF53
:1055500000F0FCFC4FF4AF70BDE8F840FFF754BF1B
:1055600008E100E0048003401480034024800340ED
:105570002C8003401C8003403480034000800B409B
:105580000C80034008800340431E032B14D872B6DE
:105590000A4951F8230068B170B4094C058834F801
:1055A0001320466841F82360521B24F8132062B68A
:1055B00070BC704762B6704700207047FC9AFF1FAE
:1055C000A89DFF1F013803280BD872B6074B53F86C
:1055D000203043B100205B680130002BFBD162B664
:1055E0007047002070471846F9E700BF509BFF1F27
:1055F000F0B472B61A491B4E012311F8014B194F32
:105600009A00240742F0010505D556F8324064B1EE
:1056100056F83520BAB10133052BEED162B6124BE4
:1056200000221A70F0BC00F00DBD0F4C0F4D217818
:1056300047F8325007EB431308304A1E5860227077
:1056400062B6F0BC70470849094B0A7847F8353014
:1056500007EBC5030830013A58600A7062B6F0E7FC
:1056600060ED00000080FF1F799BFF1F8800400055
:10567000C8004000431E032B1DD81B4A400140F0C8
:10568000100030B4104472B6184CE25C032A1BD8E8
:10569000DFE802F00212151703220D88E25410F021
:1056A000080F14BFC823882343EA05430831036069
:1056B000416062B630BC704708300222EDE7052237
:1056C000EBE708300422E8E7094A52F8230038B132
:1056D000084A52F82300416042F8231062B6E9E715
:1056E00042F82310034AF7E70080FF1F889BFF1F43
:1056F000509BFF1F609BFF1F2DE9F04FDFF800A3B9
:10570000DFF800B387B044E0A84F4FEA930807EBF7
:10571000C809013ED9F8042003F00803F6B2A2F14B
:10572000080003F0FF04002B40F0FC8057F83830ED
:105730001B0C99B222F8081C002B00F0EA809C4B4D
:1057400022F8064C42F8044C53F82620002A00F0B8
:105750002982984D55F826305860974C45F8260018
:1057600034F81630194424F8161000F04BFC0028C9
:1057700000F01182914A924B19F0080F00F10800D5
:1057800018BF1346C9F8040047F8383008238AF8D0
:1057900000309AF80040E4B260071AD5894B1B78B4
:1057A000A3B189490A7802F0FF0322B1013BDBB2C1
:1057B0000B7003B900BE85490A7802F0FF032AB1D5
:1057C000013BDBB20B70002B00F0BB8104238AF895
:1057D000003004F0080303F0FF02002B00F0C68045
:1057E0009BF80030DBB21E098ED19C086F4F57F832
:1057F000342007EBC401C2F38302013A49680C2A42
:1058000000F28380DFE802F07777818181818181F6
:1058100040818181070008686D4B6E4D0193674B95
:105820004A686D4E47F8343081B240F28164684B6B
:105830006A60286000220120A1421A603A61BA61C0
:10584000307000F2E180B1F5D06F80F02582B1F5C3
:10585000817F00F0DE8100F2C181802900F0348276
:10586000822940F0DC81A9885C4B042900F2D881B0
:105870005B4C89000B44227062701A78930740F1E8
:1058800022832070022023E2514B01931A683AB31D
:10589000544B514E5449188834780D784028864628
:1058A00045F0020828BF4FF0400E002C84F00104A0
:1058B0003470CEEB00000CBF8824C82407EBC80668
:1058C00080B285F0010544EA0E447260188047F802
:1058D000384072440D70002800F0B780019B1A60B8
:1058E0003C4B1A88B2F5A06F0FD100219A785970FD
:1058F0003E4B1A7009E0374A108842F2210290426A
:1059000000F0A8802D4A47F83420394A012313704B
:105910003CE72A4A2A4B19F0080F18BF134647F8EC
:10592000383033E700F08EFB324A334952F82630E4
:10593000002B00F03B8158688C5D42F8260003F193
:105940000802C9F80420032C05D8DFE804F02C0273
:10595000292602228A551A8819F0080F0CBF8823BD
:10596000C82343EA024347F838300FE7E00700F165
:10597000EB80210600F12881A20706D51F4A2049A5
:1059800013780220DBB213700870E30602D51C4BBB
:1059900010221A7007B0BDE8F08F04228A55DAE7AA
:1059A00005228A55D7E703228A55D4E70080FF1FD6
:1059B000FC9AFF1FA89AFF1FA89DFF1FC800400068
:1059C00088004000849BFF1F0D9BFF1F8C9BFF1FC7
:1059D000A49AFF1F709BFF1F0C9BFF1FC020074056
:1059E0007C9BFF1FB89AFF1F789BFF1F98200740E2
:1059F00094200740509BFF1F889BFF1F8820074073
:105A0000802007409020074042F22104A14200F08C
:105A1000948043D8B1F5086F00F0A881B1F5106FFC
:105A200040F0FD80B84AB94CA978117004F18005A6
:105A300003E00834AC4200F09E81236A1906F8D5D1
:105A4000606A083800F0FEFAF3E7BEF1400F18BFB5
:105A5000002243E7AE4ACD1D11F8013B02F8013F99
:105A6000A942F9D1AB4A1268862A00F01181AA49ED
:105A7000AA4E0A78307882F00105002842F002022E
:105A80000D700CBF8821C82147F8321007EBC20205
:105A900080F0010000213070516033E742F2212490
:105AA000A14240F0FE81DFF8BCC29D4B9D49AC781D
:105AB000DCF800501D6081460C700020029080468A
:105AC0008446044694490D7845F0020E07EBCE0358
:105AD000B9F1000F5C600CBF8824C82444EA0803B5
